{"abi":[{"inputs":[{"internalType":"uint256","name":"_minimumContribution","type":"uint256"}],"name":"createCampaign","outputs":[],"stateMutability":"nonpayable","type":"function"},{"inputs":[{"internalType":"uint256","name":"","type":"uint256"}],"name":"deployedCampaigns","outputs":[{"internalType":"address","name":"","type":"address"}],"stateMutability":"view","type":"function"},{"inputs":[],"name":"getDeployedCampaigns","outputs":[{"internalType":"address[]","name":"","type":"address[]"}],"stateMutability":"view","type":"function"}],"devdoc":{"kind":"dev","methods":{},"version":1},"evm":{"assembly":"    /* \"Campaign.sol\":65:454  contract CampaignFactory {... */\n  mstore(0x40, 0x80)\n  callvalue\n  dup1\n  iszero\n  tag_1\n  jumpi\n  0x00\n  dup1\n  revert\ntag_1:\n  pop\n  dataSize(sub_0)\n  dup1\n  dataOffset(sub_0)\n  0x00\n  codecopy\n  0x00\n  return\nstop\n\nsub_0: assembly {\n        /* \"Campaign.sol\":65:454  contract CampaignFactory {... */\n      mstore(0x40, 0x80)\n      callvalue\n      dup1\n      iszero\n      tag_1\n      jumpi\n      0x00\n      dup1\n      revert\n    tag_1:\n      pop\n      jumpi(tag_2, lt(calldatasize, 0x04))\n      shr(0xe0, calldataload(0x00))\n      dup1\n      0x339d50a5\n      eq\n      tag_3\n      jumpi\n      dup1\n      0x4acb9d4f\n      eq\n      tag_4\n      jumpi\n      dup1\n      0xa3303a75\n      eq\n      tag_5\n      jumpi\n    tag_2:\n      0x00\n      dup1\n      revert\n        /* \"Campaign.sol\":96:130  address[] public deployedCampaigns */\n    tag_3:\n      tag_6\n      0x04\n      dup1\n      calldatasize\n      sub\n      dup2\n      add\n      swap1\n      tag_7\n      swap2\n      swap1\n      tag_8\n      jump\t// in\n    tag_7:\n      tag_9\n      jump\t// in\n    tag_6:\n      mload(0x40)\n      tag_10\n      swap2\n      swap1\n      tag_11\n      jump\t// in\n    tag_10:\n      mload(0x40)\n      dup1\n      swap2\n      sub\n      swap1\n      return\n        /* \"Campaign.sol\":341:452  function getDeployedCampaigns() public view returns(address[] memory) {... */\n    tag_4:\n      tag_12\n      tag_13\n      jump\t// in\n    tag_12:\n      mload(0x40)\n      tag_14\n      swap2\n      swap1\n      tag_15\n      jump\t// in\n    tag_14:\n      mload(0x40)\n      dup1\n      swap2\n      sub\n      swap1\n      return\n        /* \"Campaign.sol\":137:335  function createCampaign(uint _minimumContribution) public {... */\n    tag_5:\n      tag_16\n      0x04\n      dup1\n      calldatasize\n      sub\n      dup2\n      add\n      swap1\n      tag_17\n      swap2\n      swap1\n      tag_8\n      jump\t// in\n    tag_17:\n      tag_18\n      jump\t// in\n    tag_16:\n      stop\n        /* \"Campaign.sol\":96:130  address[] public deployedCampaigns */\n    tag_9:\n      0x00\n      dup2\n      dup2\n      sload\n      dup2\n      lt\n      tag_19\n      jumpi\n      0x00\n      dup1\n      revert\n    tag_19:\n      swap1\n      0x00\n      mstore\n      keccak256(0x00, 0x20)\n      add\n      0x00\n      swap2\n      pop\n      sload\n      swap1\n      0x0100\n      exp\n      swap1\n      div\n      0xffffffffffffffffffffffffffffffffffffffff\n      and\n      dup2\n      jump\t// out\n        /* \"Campaign.sol\":341:452  function getDeployedCampaigns() public view returns(address[] memory) {... */\n    tag_13:\n        /* \"Campaign.sol\":393:409  address[] memory */\n      0x60\n        /* \"Campaign.sol\":428:445  deployedCampaigns */\n      0x00\n        /* \"Campaign.sol\":421:445  return deployedCampaigns */\n      dup1\n      sload\n      dup1\n      0x20\n      mul\n      0x20\n      add\n      mload(0x40)\n      swap1\n      dup2\n      add\n      0x40\n      mstore\n      dup1\n      swap3\n      swap2\n      swap1\n      dup2\n      dup2\n      mstore\n      0x20\n      add\n      dup3\n      dup1\n      sload\n      dup1\n      iszero\n      tag_22\n      jumpi\n      0x20\n      mul\n      dup3\n      add\n      swap2\n      swap1\n      0x00\n      mstore\n      keccak256(0x00, 0x20)\n      swap1\n    tag_23:\n      dup2\n      0x00\n      swap1\n      sload\n      swap1\n      0x0100\n      exp\n      swap1\n      div\n      0xffffffffffffffffffffffffffffffffffffffff\n      and\n      0xffffffffffffffffffffffffffffffffffffffff\n      and\n      dup2\n      mstore\n      0x20\n      add\n      swap1\n      0x01\n      add\n      swap1\n      dup1\n      dup4\n      gt\n      tag_23\n      jumpi\n    tag_22:\n      pop\n      pop\n      pop\n      pop\n      pop\n      swap1\n      pop\n        /* \"Campaign.sol\":341:452  function getDeployedCampaigns() public view returns(address[] memory) {... */\n      swap1\n      jump\t// out\n        /* \"Campaign.sol\":137:335  function createCampaign(uint _minimumContribution) public {... */\n    tag_18:\n        /* \"Campaign.sol\":205:225  Campaign newCampaign */\n      0x00\n        /* \"Campaign.sol\":241:251  msg.sender */\n      caller\n        /* \"Campaign.sol\":253:273  _minimumContribution */\n      dup3\n        /* \"Campaign.sol\":228:274  new Campaign(msg.sender, _minimumContribution) */\n      mload(0x40)\n      tag_25\n      swap1\n      tag_26\n      jump\t// in\n    tag_25:\n      tag_27\n      swap3\n      swap2\n      swap1\n      tag_28\n      jump\t// in\n    tag_27:\n      mload(0x40)\n      dup1\n      swap2\n      sub\n      swap1\n      0x00\n      create\n      dup1\n      iszero\n      dup1\n      iszero\n      tag_29\n      jumpi\n      returndatasize\n      0x00\n      dup1\n      returndatacopy\n      revert(0x00, returndatasize)\n    tag_29:\n      pop\n        /* \"Campaign.sol\":205:274  Campaign newCampaign = new Campaign(msg.sender, _minimumContribution) */\n      swap1\n      pop\n        /* \"Campaign.sol\":284:301  deployedCampaigns */\n      0x00\n        /* \"Campaign.sol\":315:326  newCampaign */\n      dup2\n        /* \"Campaign.sol\":284:328  deployedCampaigns.push(address(newCampaign)) */\n      swap1\n      dup1\n      0x01\n      dup2\n      sload\n      add\n      dup1\n      dup3\n      sstore\n      dup1\n      swap2\n      pop\n      pop\n      0x01\n      swap1\n      sub\n      swap1\n      0x00\n      mstore\n      keccak256(0x00, 0x20)\n      add\n      0x00\n      swap1\n      swap2\n      swap1\n      swap2\n      swap1\n      swap2\n      0x0100\n      exp\n      dup2\n      sload\n      dup2\n      0xffffffffffffffffffffffffffffffffffffffff\n      mul\n      not\n      and\n      swap1\n      dup4\n      0xffffffffffffffffffffffffffffffffffffffff\n      and\n      mul\n      or\n      swap1\n      sstore\n      pop\n        /* \"Campaign.sol\":195:335  {... */\n      pop\n        /* \"Campaign.sol\":137:335  function createCampaign(uint _minimumContribution) public {... */\n      pop\n      jump\t// out\n    tag_26:\n      dataSize(sub_0)\n      dup1\n      dataOffset(sub_0)\n      dup4\n      codecopy\n      add\n      swap1\n      jump\t// out\n        /* \"#utility.yul\":88:205   */\n    tag_32:\n        /* \"#utility.yul\":197:198   */\n      0x00\n        /* \"#utility.yul\":194:195   */\n      dup1\n        /* \"#utility.yul\":187:199   */\n      revert\n        /* \"#utility.yul\":334:411   */\n    tag_34:\n        /* \"#utility.yul\":371:378   */\n      0x00\n        /* \"#utility.yul\":400:405   */\n      dup2\n        /* \"#utility.yul\":389:405   */\n      swap1\n      pop\n        /* \"#utility.yul\":334:411   */\n      swap2\n      swap1\n      pop\n      jump\t// out\n        /* \"#utility.yul\":417:539   */\n    tag_35:\n        /* \"#utility.yul\":490:514   */\n      tag_54\n        /* \"#utility.yul\":508:513   */\n      dup2\n        /* \"#utility.yul\":490:514   */\n      tag_34\n      jump\t// in\n    tag_54:\n        /* \"#utility.yul\":483:488   */\n      dup2\n        /* \"#utility.yul\":480:515   */\n      eq\n        /* \"#utility.yul\":470:533   */\n      tag_55\n      jumpi\n        /* \"#utility.yul\":529:530   */\n      0x00\n        /* \"#utility.yul\":526:527   */\n      dup1\n        /* \"#utility.yul\":519:531   */\n      revert\n        /* \"#utility.yul\":470:533   */\n    tag_55:\n        /* \"#utility.yul\":417:539   */\n      pop\n      jump\t// out\n        /* \"#utility.yul\":545:684   */\n    tag_36:\n        /* \"#utility.yul\":591:596   */\n      0x00\n        /* \"#utility.yul\":629:635   */\n      dup2\n        /* \"#utility.yul\":616:636   */\n      calldataload\n        /* \"#utility.yul\":607:636   */\n      swap1\n      pop\n        /* \"#utility.yul\":645:678   */\n      tag_57\n        /* \"#utility.yul\":672:677   */\n      dup2\n        /* \"#utility.yul\":645:678   */\n      tag_35\n      jump\t// in\n    tag_57:\n        /* \"#utility.yul\":545:684   */\n      swap3\n      swap2\n      pop\n      pop\n      jump\t// out\n        /* \"#utility.yul\":690:1019   */\n    tag_8:\n        /* \"#utility.yul\":749:755   */\n      0x00\n        /* \"#utility.yul\":798:800   */\n      0x20\n        /* \"#utility.yul\":786:795   */\n      dup3\n        /* \"#utility.yul\":777:784   */\n      dup5\n        /* \"#utility.yul\":773:796   */\n      sub\n        /* \"#utility.yul\":769:801   */\n      slt\n        /* \"#utility.yul\":766:885   */\n      iszero\n      tag_59\n      jumpi\n        /* \"#utility.yul\":804:883   */\n      tag_60\n      tag_32\n      jump\t// in\n    tag_60:\n        /* \"#utility.yul\":766:885   */\n    tag_59:\n        /* \"#utility.yul\":924:925   */\n      0x00\n        /* \"#utility.yul\":949:1002   */\n      tag_61\n        /* \"#utility.yul\":994:1001   */\n      dup5\n        /* \"#utility.yul\":985:991   */\n      dup3\n        /* \"#utility.yul\":974:983   */\n      dup6\n        /* \"#utility.yul\":970:992   */\n      add\n        /* \"#utility.yul\":949:1002   */\n      tag_36\n      jump\t// in\n    tag_61:\n        /* \"#utility.yul\":939:1002   */\n      swap2\n      pop\n        /* \"#utility.yul\":895:1012   */\n      pop\n        /* \"#utility.yul\":690:1019   */\n      swap3\n      swap2\n      pop\n      pop\n      jump\t// out\n        /* \"#utility.yul\":1025:1151   */\n    tag_37:\n        /* \"#utility.yul\":1062:1069   */\n      0x00\n        /* \"#utility.yul\":1102:1144   */\n      0xffffffffffffffffffffffffffffffffffffffff\n        /* \"#utility.yul\":1095:1100   */\n      dup3\n        /* \"#utility.yul\":1091:1145   */\n      and\n        /* \"#utility.yul\":1080:1145   */\n      swap1\n      pop\n        /* \"#utility.yul\":1025:1151   */\n      swap2\n      swap1\n      pop\n      jump\t// out\n        /* \"#utility.yul\":1157:1253   */\n    tag_38:\n        /* \"#utility.yul\":1194:1201   */\n      0x00\n        /* \"#utility.yul\":1223:1247   */\n      tag_64\n        /* \"#utility.yul\":1241:1246   */\n      dup3\n        /* \"#utility.yul\":1223:1247   */\n      tag_37\n      jump\t// in\n    tag_64:\n        /* \"#utility.yul\":1212:1247   */\n      swap1\n      pop\n        /* \"#utility.yul\":1157:1253   */\n      swap2\n      swap1\n      pop\n      jump\t// out\n        /* \"#utility.yul\":1259:1377   */\n    tag_39:\n        /* \"#utility.yul\":1346:1370   */\n      tag_66\n        /* \"#utility.yul\":1364:1369   */\n      dup2\n        /* \"#utility.yul\":1346:1370   */\n      tag_38\n      jump\t// in\n    tag_66:\n        /* \"#utility.yul\":1341:1344   */\n      dup3\n        /* \"#utility.yul\":1334:1371   */\n      mstore\n        /* \"#utility.yul\":1259:1377   */\n      pop\n      pop\n      jump\t// out\n        /* \"#utility.yul\":1383:1605   */\n    tag_11:\n        /* \"#utility.yul\":1476:1480   */\n      0x00\n        /* \"#utility.yul\":1514:1516   */\n      0x20\n        /* \"#utility.yul\":1503:1512   */\n      dup3\n        /* \"#utility.yul\":1499:1517   */\n      add\n        /* \"#utility.yul\":1491:1517   */\n      swap1\n      pop\n        /* \"#utility.yul\":1527:1598   */\n      tag_68\n        /* \"#utility.yul\":1595:1596   */\n      0x00\n        /* \"#utility.yul\":1584:1593   */\n      dup4\n        /* \"#utility.yul\":1580:1597   */\n      add\n        /* \"#utility.yul\":1571:1577   */\n      dup5\n        /* \"#utility.yul\":1527:1598   */\n      tag_39\n      jump\t// in\n    tag_68:\n        /* \"#utility.yul\":1383:1605   */\n      swap3\n      swap2\n      pop\n      pop\n      jump\t// out\n        /* \"#utility.yul\":1611:1725   */\n    tag_40:\n        /* \"#utility.yul\":1678:1684   */\n      0x00\n        /* \"#utility.yul\":1712:1717   */\n      dup2\n        /* \"#utility.yul\":1706:1718   */\n      mload\n        /* \"#utility.yul\":1696:1718   */\n      swap1\n      pop\n        /* \"#utility.yul\":1611:1725   */\n      swap2\n      swap1\n      pop\n      jump\t// out\n        /* \"#utility.yul\":1731:1915   */\n    tag_41:\n        /* \"#utility.yul\":1830:1841   */\n      0x00\n        /* \"#utility.yul\":1864:1870   */\n      dup3\n        /* \"#utility.yul\":1859:1862   */\n      dup3\n        /* \"#utility.yul\":1852:1871   */\n      mstore\n        /* \"#utility.yul\":1904:1908   */\n      0x20\n        /* \"#utility.yul\":1899:1902   */\n      dup3\n        /* \"#utility.yul\":1895:1909   */\n      add\n        /* \"#utility.yul\":1880:1909   */\n      swap1\n      pop\n        /* \"#utility.yul\":1731:1915   */\n      swap3\n      swap2\n      pop\n      pop\n      jump\t// out\n        /* \"#utility.yul\":1921:2053   */\n    tag_42:\n        /* \"#utility.yul\":1988:1992   */\n      0x00\n        /* \"#utility.yul\":2011:2014   */\n      dup2\n        /* \"#utility.yul\":2003:2014   */\n      swap1\n      pop\n        /* \"#utility.yul\":2041:2045   */\n      0x20\n        /* \"#utility.yul\":2036:2039   */\n      dup3\n        /* \"#utility.yul\":2032:2046   */\n      add\n        /* \"#utility.yul\":2024:2046   */\n      swap1\n      pop\n        /* \"#utility.yul\":1921:2053   */\n      swap2\n      swap1\n      pop\n      jump\t// out\n        /* \"#utility.yul\":2059:2167   */\n    tag_43:\n        /* \"#utility.yul\":2136:2160   */\n      tag_73\n        /* \"#utility.yul\":2154:2159   */\n      dup2\n        /* \"#utility.yul\":2136:2160   */\n      tag_38\n      jump\t// in\n    tag_73:\n        /* \"#utility.yul\":2131:2134   */\n      dup3\n        /* \"#utility.yul\":2124:2161   */\n      mstore\n        /* \"#utility.yul\":2059:2167   */\n      pop\n      pop\n      jump\t// out\n        /* \"#utility.yul\":2173:2352   */\n    tag_44:\n        /* \"#utility.yul\":2242:2252   */\n      0x00\n        /* \"#utility.yul\":2263:2309   */\n      tag_75\n        /* \"#utility.yul\":2305:2308   */\n      dup4\n        /* \"#utility.yul\":2297:2303   */\n      dup4\n        /* \"#utility.yul\":2263:2309   */\n      tag_43\n      jump\t// in\n    tag_75:\n        /* \"#utility.yul\":2341:2345   */\n      0x20\n        /* \"#utility.yul\":2336:2339   */\n      dup4\n        /* \"#utility.yul\":2332:2346   */\n      add\n        /* \"#utility.yul\":2318:2346   */\n      swap1\n      pop\n        /* \"#utility.yul\":2173:2352   */\n      swap3\n      swap2\n      pop\n      pop\n      jump\t// out\n        /* \"#utility.yul\":2358:2471   */\n    tag_45:\n        /* \"#utility.yul\":2428:2432   */\n      0x00\n        /* \"#utility.yul\":2460:2464   */\n      0x20\n        /* \"#utility.yul\":2455:2458   */\n      dup3\n        /* \"#utility.yul\":2451:2465   */\n      add\n        /* \"#utility.yul\":2443:2465   */\n      swap1\n      pop\n        /* \"#utility.yul\":2358:2471   */\n      swap2\n      swap1\n      pop\n      jump\t// out\n        /* \"#utility.yul\":2507:3239   */\n    tag_46:\n        /* \"#utility.yul\":2626:2629   */\n      0x00\n        /* \"#utility.yul\":2655:2709   */\n      tag_78\n        /* \"#utility.yul\":2703:2708   */\n      dup3\n        /* \"#utility.yul\":2655:2709   */\n      tag_40\n      jump\t// in\n    tag_78:\n        /* \"#utility.yul\":2725:2811   */\n      tag_79\n        /* \"#utility.yul\":2804:2810   */\n      dup2\n        /* \"#utility.yul\":2799:2802   */\n      dup6\n        /* \"#utility.yul\":2725:2811   */\n      tag_41\n      jump\t// in\n    tag_79:\n        /* \"#utility.yul\":2718:2811   */\n      swap4\n      pop\n        /* \"#utility.yul\":2835:2891   */\n      tag_80\n        /* \"#utility.yul\":2885:2890   */\n      dup4\n        /* \"#utility.yul\":2835:2891   */\n      tag_42\n      jump\t// in\n    tag_80:\n        /* \"#utility.yul\":2914:2921   */\n      dup1\n        /* \"#utility.yul\":2945:2946   */\n      0x00\n        /* \"#utility.yul\":2930:3214   */\n    tag_81:\n        /* \"#utility.yul\":2955:2961   */\n      dup4\n        /* \"#utility.yul\":2952:2953   */\n      dup2\n        /* \"#utility.yul\":2949:2962   */\n      lt\n        /* \"#utility.yul\":2930:3214   */\n      iszero\n      tag_83\n      jumpi\n        /* \"#utility.yul\":3031:3037   */\n      dup2\n        /* \"#utility.yul\":3025:3038   */\n      mload\n        /* \"#utility.yul\":3058:3121   */\n      tag_84\n        /* \"#utility.yul\":3117:3120   */\n      dup9\n        /* \"#utility.yul\":3102:3115   */\n      dup3\n        /* \"#utility.yul\":3058:3121   */\n      tag_44\n      jump\t// in\n    tag_84:\n        /* \"#utility.yul\":3051:3121   */\n      swap8\n      pop\n        /* \"#utility.yul\":3144:3204   */\n      tag_85\n        /* \"#utility.yul\":3197:3203   */\n      dup4\n        /* \"#utility.yul\":3144:3204   */\n      tag_45\n      jump\t// in\n    tag_85:\n        /* \"#utility.yul\":3134:3204   */\n      swap3\n      pop\n        /* \"#utility.yul\":2990:3214   */\n      pop\n        /* \"#utility.yul\":2977:2978   */\n      0x01\n        /* \"#utility.yul\":2974:2975   */\n      dup2\n        /* \"#utility.yul\":2970:2979   */\n      add\n        /* \"#utility.yul\":2965:2979   */\n      swap1\n      pop\n        /* \"#utility.yul\":2930:3214   */\n      jump(tag_81)\n    tag_83:\n        /* \"#utility.yul\":2934:2948   */\n      pop\n        /* \"#utility.yul\":3230:3233   */\n      dup6\n        /* \"#utility.yul\":3223:3233   */\n      swap4\n      pop\n        /* \"#utility.yul\":2631:3239   */\n      pop\n      pop\n      pop\n        /* \"#utility.yul\":2507:3239   */\n      swap3\n      swap2\n      pop\n      pop\n      jump\t// out\n        /* \"#utility.yul\":3245:3618   */\n    tag_15:\n        /* \"#utility.yul\":3388:3392   */\n      0x00\n        /* \"#utility.yul\":3426:3428   */\n      0x20\n        /* \"#utility.yul\":3415:3424   */\n      dup3\n        /* \"#utility.yul\":3411:3429   */\n      add\n        /* \"#utility.yul\":3403:3429   */\n      swap1\n      pop\n        /* \"#utility.yul\":3475:3484   */\n      dup2\n        /* \"#utility.yul\":3469:3473   */\n      dup2\n        /* \"#utility.yul\":3465:3485   */\n      sub\n        /* \"#utility.yul\":3461:3462   */\n      0x00\n        /* \"#utility.yul\":3450:3459   */\n      dup4\n        /* \"#utility.yul\":3446:3463   */\n      add\n        /* \"#utility.yul\":3439:3486   */\n      mstore\n        /* \"#utility.yul\":3503:3611   */\n      tag_87\n        /* \"#utility.yul\":3606:3610   */\n      dup2\n        /* \"#utility.yul\":3597:3603   */\n      dup5\n        /* \"#utility.yul\":3503:3611   */\n      tag_46\n      jump\t// in\n    tag_87:\n        /* \"#utility.yul\":3495:3611   */\n      swap1\n      pop\n        /* \"#utility.yul\":3245:3618   */\n      swap3\n      swap2\n      pop\n      pop\n      jump\t// out\n        /* \"#utility.yul\":3624:3742   */\n    tag_47:\n        /* \"#utility.yul\":3711:3735   */\n      tag_89\n        /* \"#utility.yul\":3729:3734   */\n      dup2\n        /* \"#utility.yul\":3711:3735   */\n      tag_34\n      jump\t// in\n    tag_89:\n        /* \"#utility.yul\":3706:3709   */\n      dup3\n        /* \"#utility.yul\":3699:3736   */\n      mstore\n        /* \"#utility.yul\":3624:3742   */\n      pop\n      pop\n      jump\t// out\n        /* \"#utility.yul\":3748:4080   */\n    tag_28:\n        /* \"#utility.yul\":3869:3873   */\n      0x00\n        /* \"#utility.yul\":3907:3909   */\n      0x40\n        /* \"#utility.yul\":3896:3905   */\n      dup3\n        /* \"#utility.yul\":3892:3910   */\n      add\n        /* \"#utility.yul\":3884:3910   */\n      swap1\n      pop\n        /* \"#utility.yul\":3920:3991   */\n      tag_91\n        /* \"#utility.yul\":3988:3989   */\n      0x00\n        /* \"#utility.yul\":3977:3986   */\n      dup4\n        /* \"#utility.yul\":3973:3990   */\n      add\n        /* \"#utility.yul\":3964:3970   */\n      dup6\n        /* \"#utility.yul\":3920:3991   */\n      tag_39\n      jump\t// in\n    tag_91:\n        /* \"#utility.yul\":4001:4073   */\n      tag_92\n        /* \"#utility.yul\":4069:4071   */\n      0x20\n        /* \"#utility.yul\":4058:4067   */\n      dup4\n        /* \"#utility.yul\":4054:4072   */\n      add\n        /* \"#utility.yul\":4045:4051   */\n      dup5\n        /* \"#utility.yul\":4001:4073   */\n      tag_47\n      jump\t// in\n    tag_92:\n        /* \"#utility.yul\":3748:4080   */\n      swap4\n      swap3\n      pop\n      pop\n      pop\n      jump\t// out\n    stop\n\n    sub_0: assembly {\n            /* \"Campaign.sol\":456:2598  contract Campaign {... */\n          mstore(0x40, 0x80)\n            /* \"Campaign.sol\":987:1131  constructor(address _manager, uint _minimumContribution) {... */\n          callvalue\n          dup1\n          iszero\n          tag_1\n          jumpi\n          0x00\n          dup1\n          revert\n        tag_1:\n          pop\n          mload(0x40)\n          sub(codesize, bytecodeSize)\n          dup1\n          bytecodeSize\n          dup4\n          codecopy\n          dup2\n          dup2\n          add\n          0x40\n          mstore\n          dup2\n          add\n          swap1\n          tag_2\n          swap2\n          swap1\n          tag_3\n          jump\t// in\n        tag_2:\n            /* \"Campaign.sol\":1064:1072  _manager */\n          dup2\n            /* \"Campaign.sol\":1054:1061  manager */\n          0x00\n          dup1\n            /* \"Campaign.sol\":1054:1072  manager = _manager */\n          0x0100\n          exp\n          dup2\n          sload\n          dup2\n          0xffffffffffffffffffffffffffffffffffffffff\n          mul\n          not\n          and\n          swap1\n          dup4\n          0xffffffffffffffffffffffffffffffffffffffff\n          and\n          mul\n          or\n          swap1\n          sstore\n          pop\n            /* \"Campaign.sol\":1104:1124  _minimumContribution */\n          dup1\n            /* \"Campaign.sol\":1082:1101  minimumContribution */\n          0x01\n            /* \"Campaign.sol\":1082:1124  minimumContribution = _minimumContribution */\n          dup2\n          swap1\n          sstore\n          pop\n            /* \"Campaign.sol\":987:1131  constructor(address _manager, uint _minimumContribution) {... */\n          pop\n          pop\n            /* \"Campaign.sol\":456:2598  contract Campaign {... */\n          jump(tag_6)\n            /* \"#utility.yul\":88:205   */\n        tag_8:\n            /* \"#utility.yul\":197:198   */\n          0x00\n            /* \"#utility.yul\":194:195   */\n          dup1\n            /* \"#utility.yul\":187:199   */\n          revert\n            /* \"#utility.yul\":334:460   */\n        tag_10:\n            /* \"#utility.yul\":371:378   */\n          0x00\n            /* \"#utility.yul\":411:453   */\n          0xffffffffffffffffffffffffffffffffffffffff\n            /* \"#utility.yul\":404:409   */\n          dup3\n            /* \"#utility.yul\":400:454   */\n          and\n            /* \"#utility.yul\":389:454   */\n          swap1\n          pop\n            /* \"#utility.yul\":334:460   */\n          swap2\n          swap1\n          pop\n          jump\t// out\n            /* \"#utility.yul\":466:562   */\n        tag_11:\n            /* \"#utility.yul\":503:510   */\n          0x00\n            /* \"#utility.yul\":532:556   */\n          tag_23\n            /* \"#utility.yul\":550:555   */\n          dup3\n            /* \"#utility.yul\":532:556   */\n          tag_10\n          jump\t// in\n        tag_23:\n            /* \"#utility.yul\":521:556   */\n          swap1\n          pop\n            /* \"#utility.yul\":466:562   */\n          swap2\n          swap1\n          pop\n          jump\t// out\n            /* \"#utility.yul\":568:690   */\n        tag_12:\n            /* \"#utility.yul\":641:665   */\n          tag_25\n            /* \"#utility.yul\":659:664   */\n          dup2\n            /* \"#utility.yul\":641:665   */\n          tag_11\n          jump\t// in\n        tag_25:\n            /* \"#utility.yul\":634:639   */\n          dup2\n            /* \"#utility.yul\":631:666   */\n          eq\n            /* \"#utility.yul\":621:684   */\n          tag_26\n          jumpi\n            /* \"#utility.yul\":680:681   */\n          0x00\n            /* \"#utility.yul\":677:678   */\n          dup1\n            /* \"#utility.yul\":670:682   */\n          revert\n            /* \"#utility.yul\":621:684   */\n        tag_26:\n            /* \"#utility.yul\":568:690   */\n          pop\n          jump\t// out\n            /* \"#utility.yul\":696:839   */\n        tag_13:\n            /* \"#utility.yul\":753:758   */\n          0x00\n            /* \"#utility.yul\":784:790   */\n          dup2\n            /* \"#utility.yul\":778:791   */\n          mload\n            /* \"#utility.yul\":769:791   */\n          swap1\n          pop\n            /* \"#utility.yul\":800:833   */\n          tag_28\n            /* \"#utility.yul\":827:832   */\n          dup2\n            /* \"#utility.yul\":800:833   */\n          tag_12\n          jump\t// in\n        tag_28:\n            /* \"#utility.yul\":696:839   */\n          swap3\n          swap2\n          pop\n          pop\n          jump\t// out\n            /* \"#utility.yul\":845:922   */\n        tag_14:\n            /* \"#utility.yul\":882:889   */\n          0x00\n            /* \"#utility.yul\":911:916   */\n          dup2\n            /* \"#utility.yul\":900:916   */\n          swap1\n          pop\n            /* \"#utility.yul\":845:922   */\n          swap2\n          swap1\n          pop\n          jump\t// out\n            /* \"#utility.yul\":928:1050   */\n        tag_15:\n            /* \"#utility.yul\":1001:1025   */\n          tag_31\n            /* \"#utility.yul\":1019:1024   */\n          dup2\n            /* \"#utility.yul\":1001:1025   */\n          tag_14\n          jump\t// in\n        tag_31:\n            /* \"#utility.yul\":994:999   */\n          dup2\n            /* \"#utility.yul\":991:1026   */\n          eq\n            /* \"#utility.yul\":981:1044   */\n          tag_32\n          jumpi\n            /* \"#utility.yul\":1040:1041   */\n          0x00\n            /* \"#utility.yul\":1037:1038   */\n          dup1\n            /* \"#utility.yul\":1030:1042   */\n          revert\n            /* \"#utility.yul\":981:1044   */\n        tag_32:\n            /* \"#utility.yul\":928:1050   */\n          pop\n          jump\t// out\n            /* \"#utility.yul\":1056:1199   */\n        tag_16:\n            /* \"#utility.yul\":1113:1118   */\n          0x00\n            /* \"#utility.yul\":1144:1150   */\n          dup2\n            /* \"#utility.yul\":1138:1151   */\n          mload\n            /* \"#utility.yul\":1129:1151   */\n          swap1\n          pop\n            /* \"#utility.yul\":1160:1193   */\n          tag_34\n            /* \"#utility.yul\":1187:1192   */\n          dup2\n            /* \"#utility.yul\":1160:1193   */\n          tag_15\n          jump\t// in\n        tag_34:\n            /* \"#utility.yul\":1056:1199   */\n          swap3\n          swap2\n          pop\n          pop\n          jump\t// out\n            /* \"#utility.yul\":1205:1712   */\n        tag_3:\n            /* \"#utility.yul\":1284:1290   */\n          0x00\n            /* \"#utility.yul\":1292:1298   */\n          dup1\n            /* \"#utility.yul\":1341:1343   */\n          0x40\n            /* \"#utility.yul\":1329:1338   */\n          dup4\n            /* \"#utility.yul\":1320:1327   */\n          dup6\n            /* \"#utility.yul\":1316:1339   */\n          sub\n            /* \"#utility.yul\":1312:1344   */\n          slt\n            /* \"#utility.yul\":1309:1428   */\n          iszero\n          tag_36\n          jumpi\n            /* \"#utility.yul\":1347:1426   */\n          tag_37\n          tag_8\n          jump\t// in\n        tag_37:\n            /* \"#utility.yul\":1309:1428   */\n        tag_36:\n            /* \"#utility.yul\":1467:1468   */\n          0x00\n            /* \"#utility.yul\":1492:1556   */\n          tag_38\n            /* \"#utility.yul\":1548:1555   */\n          dup6\n            /* \"#utility.yul\":1539:1545   */\n          dup3\n            /* \"#utility.yul\":1528:1537   */\n          dup7\n            /* \"#utility.yul\":1524:1546   */\n          add\n            /* \"#utility.yul\":1492:1556   */\n          tag_13\n          jump\t// in\n        tag_38:\n            /* \"#utility.yul\":1482:1556   */\n          swap3\n          pop\n            /* \"#utility.yul\":1438:1566   */\n          pop\n            /* \"#utility.yul\":1605:1607   */\n          0x20\n            /* \"#utility.yul\":1631:1695   */\n          tag_39\n            /* \"#utility.yul\":1687:1694   */\n          dup6\n            /* \"#utility.yul\":1678:1684   */\n          dup3\n            /* \"#utility.yul\":1667:1676   */\n          dup7\n            /* \"#utility.yul\":1663:1685   */\n          add\n            /* \"#utility.yul\":1631:1695   */\n          tag_16\n          jump\t// in\n        tag_39:\n            /* \"#utility.yul\":1621:1695   */\n          swap2\n          pop\n            /* \"#utility.yul\":1576:1705   */\n          pop\n            /* \"#utility.yul\":1205:1712   */\n          swap3\n          pop\n          swap3\n          swap1\n          pop\n          jump\t// out\n            /* \"Campaign.sol\":456:2598  contract Campaign {... */\n        tag_6:\n          dataSize(sub_0)\n          dup1\n          dataOffset(sub_0)\n          0x00\n          codecopy\n          0x00\n          return\n        stop\n\n        sub_0: assembly {\n                /* \"Campaign.sol\":456:2598  contract Campaign {... */\n              mstore(0x40, 0x80)\n              jumpi(tag_1, lt(calldatasize, 0x04))\n              shr(0xe0, calldataload(0x00))\n              dup1\n              0x81d12c58\n              gt\n              tag_13\n              jumpi\n              dup1\n              0x81d12c58\n              eq\n              tag_7\n              jumpi\n              dup1\n              0x82fde093\n              eq\n              tag_8\n              jumpi\n              dup1\n              0x8a9cfd55\n              eq\n              tag_9\n              jumpi\n              dup1\n              0x937e09b1\n              eq\n              tag_10\n              jumpi\n              dup1\n              0xd7bb99ba\n              eq\n              tag_11\n              jumpi\n              dup1\n              0xd7d1bbdb\n              eq\n              tag_12\n              jumpi\n              jump(tag_1)\n            tag_13:\n              dup1\n              0x03441006\n              eq\n              tag_2\n              jumpi\n              dup1\n              0x0a144391\n              eq\n              tag_3\n              jumpi\n              dup1\n              0x3fad1834\n              eq\n              tag_4\n              jumpi\n              dup1\n              0x4051ddac\n              eq\n              tag_5\n              jumpi\n              dup1\n              0x481c6a75\n              eq\n              tag_6\n              jumpi\n            tag_1:\n              0x00\n              dup1\n              revert\n                /* \"Campaign.sol\":1958:2265  function finalizeRequest(uint index) public onlyManager {... */\n            tag_2:\n              callvalue\n              dup1\n              iszero\n              tag_14\n              jumpi\n              0x00\n              dup1\n              revert\n            tag_14:\n              pop\n              tag_15\n              0x04\n              dup1\n              calldatasize\n              sub\n              dup2\n              add\n              swap1\n              tag_16\n              swap2\n              swap1\n              tag_17\n              jump\t// in\n            tag_16:\n              tag_18\n              jump\t// in\n            tag_15:\n              stop\n                /* \"Campaign.sol\":743:784  mapping(address => bool) public approvers */\n            tag_3:\n              callvalue\n              dup1\n              iszero\n              tag_19\n              jumpi\n              0x00\n              dup1\n              revert\n            tag_19:\n              pop\n              tag_20\n              0x04\n              dup1\n              calldatasize\n              sub\n              dup2\n              add\n              swap1\n              tag_21\n              swap2\n              swap1\n              tag_22\n              jump\t// in\n            tag_21:\n              tag_23\n              jump\t// in\n            tag_20:\n              mload(0x40)\n              tag_24\n              swap2\n              swap1\n              tag_25\n              jump\t// in\n            tag_24:\n              mload(0x40)\n              dup1\n              swap2\n              sub\n              swap1\n              return\n                /* \"Campaign.sol\":2507:2596  function getRequestCount() public view returns (uint) {... */\n            tag_4:\n              callvalue\n              dup1\n              iszero\n              tag_26\n              jumpi\n              0x00\n              dup1\n              revert\n            tag_26:\n              pop\n              tag_27\n              tag_28\n              jump\t// in\n            tag_27:\n              mload(0x40)\n              tag_29\n              swap2\n              swap1\n              tag_30\n              jump\t// in\n            tag_29:\n              mload(0x40)\n              dup1\n              swap2\n              sub\n              swap1\n              return\n                /* \"Campaign.sol\":2271:2501  function getSummary() public view returns (uint, uint, uint, uint, address) {... */\n            tag_5:\n              callvalue\n              dup1\n              iszero\n              tag_31\n              jumpi\n              0x00\n              dup1\n              revert\n            tag_31:\n              pop\n              tag_32\n              tag_33\n              jump\t// in\n            tag_32:\n              mload(0x40)\n              tag_34\n              swap6\n              swap5\n              swap4\n              swap3\n              swap2\n              swap1\n              tag_35\n              jump\t// in\n            tag_34:\n              mload(0x40)\n              dup1\n              swap2\n              sub\n              swap1\n              return\n                /* \"Campaign.sol\":678:700  address public manager */\n            tag_6:\n              callvalue\n              dup1\n              iszero\n              tag_36\n              jumpi\n              0x00\n              dup1\n              revert\n            tag_36:\n              pop\n              tag_37\n              tag_38\n              jump\t// in\n            tag_37:\n              mload(0x40)\n              tag_39\n              swap2\n              swap1\n              tag_40\n              jump\t// in\n            tag_39:\n              mload(0x40)\n              dup1\n              swap2\n              sub\n              swap1\n              return\n                /* \"Campaign.sol\":790:830  mapping(uint => Request) public requests */\n            tag_7:\n              callvalue\n              dup1\n              iszero\n              tag_41\n              jumpi\n              0x00\n              dup1\n              revert\n            tag_41:\n              pop\n              tag_42\n              0x04\n              dup1\n              calldatasize\n              sub\n              dup2\n              add\n              swap1\n              tag_43\n              swap2\n              swap1\n              tag_17\n              jump\t// in\n            tag_43:\n              tag_44\n              jump\t// in\n            tag_42:\n              mload(0x40)\n              tag_45\n              swap6\n              swap5\n              swap4\n              swap3\n              swap2\n              swap1\n              tag_46\n              jump\t// in\n            tag_45:\n              mload(0x40)\n              dup1\n              swap2\n              sub\n              swap1\n              return\n                /* \"Campaign.sol\":836:862  uint public approversCount */\n            tag_8:\n              callvalue\n              dup1\n              iszero\n              tag_47\n              jumpi\n              0x00\n              dup1\n              revert\n            tag_47:\n              pop\n              tag_48\n              tag_49\n              jump\t// in\n            tag_48:\n              mload(0x40)\n              tag_50\n              swap2\n              swap1\n              tag_30\n              jump\t// in\n            tag_50:\n              mload(0x40)\n              dup1\n              swap2\n              sub\n              swap1\n              return\n                /* \"Campaign.sol\":1301:1675  function createRequest(string memory _description, uint _value, address _recipient) public onlyManager {... */\n            tag_9:\n              callvalue\n              dup1\n              iszero\n              tag_51\n              jumpi\n              0x00\n              dup1\n              revert\n            tag_51:\n              pop\n              tag_52\n              0x04\n              dup1\n              calldatasize\n              sub\n              dup2\n              add\n              swap1\n              tag_53\n              swap2\n              swap1\n              tag_54\n              jump\t// in\n            tag_53:\n              tag_55\n              jump\t// in\n            tag_52:\n              stop\n                /* \"Campaign.sol\":706:737  uint public minimumContribution */\n            tag_10:\n              callvalue\n              dup1\n              iszero\n              tag_56\n              jumpi\n              0x00\n              dup1\n              revert\n            tag_56:\n              pop\n              tag_57\n              tag_58\n              jump\t// in\n            tag_57:\n              mload(0x40)\n              tag_59\n              swap2\n              swap1\n              tag_30\n              jump\t// in\n            tag_59:\n              mload(0x40)\n              dup1\n              swap2\n              sub\n              swap1\n              return\n                /* \"Campaign.sol\":1137:1295  function contribute() public payable{... */\n            tag_11:\n              tag_60\n              tag_61\n              jump\t// in\n            tag_60:\n              stop\n                /* \"Campaign.sol\":1681:1952  function approveRequest(uint index) public {... */\n            tag_12:\n              callvalue\n              dup1\n              iszero\n              tag_62\n              jumpi\n              0x00\n              dup1\n              revert\n            tag_62:\n              pop\n              tag_63\n              0x04\n              dup1\n              calldatasize\n              sub\n              dup2\n              add\n              swap1\n              tag_64\n              swap2\n              swap1\n              tag_17\n              jump\t// in\n            tag_64:\n              tag_65\n              jump\t// in\n            tag_63:\n              stop\n                /* \"Campaign.sol\":1958:2265  function finalizeRequest(uint index) public onlyManager {... */\n            tag_18:\n                /* \"Campaign.sol\":955:962  manager */\n              0x00\n              dup1\n              sload\n              swap1\n              0x0100\n              exp\n              swap1\n              div\n              0xffffffffffffffffffffffffffffffffffffffff\n              and\n                /* \"Campaign.sol\":941:962  msg.sender == manager */\n              0xffffffffffffffffffffffffffffffffffffffff\n              and\n                /* \"Campaign.sol\":941:951  msg.sender */\n              caller\n                /* \"Campaign.sol\":941:962  msg.sender == manager */\n              0xffffffffffffffffffffffffffffffffffffffff\n              and\n              eq\n                /* \"Campaign.sol\":933:963  require(msg.sender == manager) */\n              tag_67\n              jumpi\n              0x00\n              dup1\n              revert\n            tag_67:\n                /* \"Campaign.sol\":2024:2047  Request storage request */\n              0x00\n                /* \"Campaign.sol\":2050:2058  requests */\n              0x03\n                /* \"Campaign.sol\":2050:2065  requests[index] */\n              0x00\n                /* \"Campaign.sol\":2059:2064  index */\n              dup4\n                /* \"Campaign.sol\":2050:2065  requests[index] */\n              dup2\n              mstore\n              0x20\n              add\n              swap1\n              dup2\n              mstore\n              0x20\n              add\n              0x00\n              keccak256\n                /* \"Campaign.sol\":2024:2065  Request storage request = requests[index] */\n              swap1\n              pop\n                /* \"Campaign.sol\":2085:2092  request */\n              dup1\n                /* \"Campaign.sol\":2085:2101  request.complete */\n              0x02\n              add\n              0x14\n              swap1\n              sload\n              swap1\n              0x0100\n              exp\n              swap1\n              div\n              0xff\n              and\n                /* \"Campaign.sol\":2084:2101  !request.complete */\n              iszero\n                /* \"Campaign.sol\":2076:2102  require(!request.complete) */\n              tag_69\n              jumpi\n              0x00\n              dup1\n              revert\n            tag_69:\n                /* \"Campaign.sol\":2149:2163  approversCount */\n              sload(0x04)\n                /* \"Campaign.sol\":2144:2145  2 */\n              0x02\n                /* \"Campaign.sol\":2120:2127  request */\n              dup3\n                /* \"Campaign.sol\":2120:2141  request.approvalCount */\n              0x03\n              add\n              sload\n                /* \"Campaign.sol\":2120:2145  request.approvalCount * 2 */\n              tag_70\n              swap2\n              swap1\n              tag_71\n              jump\t// in\n            tag_70:\n                /* \"Campaign.sol\":2120:2163  request.approvalCount * 2 >= approversCount */\n              lt\n              iszero\n                /* \"Campaign.sol\":2112:2164  require(request.approvalCount * 2 >= approversCount) */\n              tag_72\n              jumpi\n              0x00\n              dup1\n              revert\n            tag_72:\n                /* \"Campaign.sol\":2183:2190  request */\n              dup1\n                /* \"Campaign.sol\":2183:2200  request.recipient */\n              0x02\n              add\n              0x00\n              swap1\n              sload\n              swap1\n              0x0100\n              exp\n              swap1\n              div\n              0xffffffffffffffffffffffffffffffffffffffff\n              and\n                /* \"Campaign.sol\":2175:2210  payable(request.recipient).transfer */\n              0xffffffffffffffffffffffffffffffffffffffff\n              and\n                /* \"Campaign.sol\":2175:2225  payable(request.recipient).transfer(request.value) */\n              0x08fc\n                /* \"Campaign.sol\":2211:2218  request */\n              dup3\n                /* \"Campaign.sol\":2211:2224  request.value */\n              0x01\n              add\n              sload\n                /* \"Campaign.sol\":2175:2225  payable(request.recipient).transfer(request.value) */\n              swap1\n              dup2\n              iszero\n              mul\n              swap1\n              mload(0x40)\n              0x00\n              mload(0x40)\n              dup1\n              dup4\n              sub\n              dup2\n              dup6\n              dup9\n              dup9\n              call\n              swap4\n              pop\n              pop\n              pop\n              pop\n              iszero\n              dup1\n              iszero\n              tag_74\n              jumpi\n              returndatasize\n              0x00\n              dup1\n              returndatacopy\n              revert(0x00, returndatasize)\n            tag_74:\n              pop\n                /* \"Campaign.sol\":2254:2258  true */\n              0x01\n                /* \"Campaign.sol\":2235:2242  request */\n              dup2\n                /* \"Campaign.sol\":2235:2251  request.complete */\n              0x02\n              add\n              0x14\n                /* \"Campaign.sol\":2235:2258  request.complete = true */\n              0x0100\n              exp\n              dup2\n              sload\n              dup2\n              0xff\n              mul\n              not\n              and\n              swap1\n              dup4\n              iszero\n              iszero\n              mul\n              or\n              swap1\n              sstore\n              pop\n                /* \"Campaign.sol\":2014:2265  {... */\n              pop\n                /* \"Campaign.sol\":1958:2265  function finalizeRequest(uint index) public onlyManager {... */\n              pop\n              jump\t// out\n                /* \"Campaign.sol\":743:784  mapping(address => bool) public approvers */\n            tag_23:\n              mstore(0x20, 0x02)\n              dup1\n              0x00\n              mstore\n              keccak256(0x00, 0x40)\n              0x00\n              swap2\n              pop\n              sload\n              swap1\n              0x0100\n              exp\n              swap1\n              div\n              0xff\n              and\n              dup2\n              jump\t// out\n                /* \"Campaign.sol\":2507:2596  function getRequestCount() public view returns (uint) {... */\n            tag_28:\n                /* \"Campaign.sol\":2555:2559  uint */\n              0x00\n                /* \"Campaign.sol\":2576:2589  requestsCount */\n              sload(0x05)\n                /* \"Campaign.sol\":2569:2589  return requestsCount */\n              swap1\n              pop\n                /* \"Campaign.sol\":2507:2596  function getRequestCount() public view returns (uint) {... */\n              swap1\n              jump\t// out\n                /* \"Campaign.sol\":2271:2501  function getSummary() public view returns (uint, uint, uint, uint, address) {... */\n            tag_33:\n                /* \"Campaign.sol\":2314:2318  uint */\n              0x00\n                /* \"Campaign.sol\":2320:2324  uint */\n              dup1\n                /* \"Campaign.sol\":2326:2330  uint */\n              0x00\n                /* \"Campaign.sol\":2332:2336  uint */\n              dup1\n                /* \"Campaign.sol\":2338:2345  address */\n              0x00\n                /* \"Campaign.sol\":2372:2391  minimumContribution */\n              sload(0x01)\n                /* \"Campaign.sol\":2401:2422  address(this).balance */\n              selfbalance\n                /* \"Campaign.sol\":2432:2445  requestsCount */\n              sload(0x05)\n                /* \"Campaign.sol\":2455:2469  approversCount */\n              sload(0x04)\n                /* \"Campaign.sol\":2479:2486  manager */\n              0x00\n              dup1\n              sload\n              swap1\n              0x0100\n              exp\n              swap1\n              div\n              0xffffffffffffffffffffffffffffffffffffffff\n              and\n                /* \"Campaign.sol\":2355:2494  return (... */\n              swap5\n              pop\n              swap5\n              pop\n              swap5\n              pop\n              swap5\n              pop\n              swap5\n              pop\n                /* \"Campaign.sol\":2271:2501  function getSummary() public view returns (uint, uint, uint, uint, address) {... */\n              swap1\n              swap2\n              swap3\n              swap4\n              swap5\n              jump\t// out\n                /* \"Campaign.sol\":678:700  address public manager */\n            tag_38:\n              0x00\n              dup1\n              sload\n              swap1\n              0x0100\n              exp\n              swap1\n              div\n              0xffffffffffffffffffffffffffffffffffffffff\n              and\n              dup2\n              jump\t// out\n                /* \"Campaign.sol\":790:830  mapping(uint => Request) public requests */\n            tag_44:\n              mstore(0x20, 0x03)\n              dup1\n              0x00\n              mstore\n              keccak256(0x00, 0x40)\n              0x00\n              swap2\n              pop\n              swap1\n              pop\n              dup1\n              0x00\n              add\n              dup1\n              sload\n              tag_77\n              swap1\n              tag_78\n              jump\t// in\n            tag_77:\n              dup1\n              0x1f\n              add\n              0x20\n              dup1\n              swap2\n              div\n              mul\n              0x20\n              add\n              mload(0x40)\n              swap1\n              dup2\n              add\n              0x40\n              mstore\n              dup1\n              swap3\n              swap2\n              swap1\n              dup2\n              dup2\n              mstore\n              0x20\n              add\n              dup3\n              dup1\n              sload\n              tag_79\n              swap1\n              tag_78\n              jump\t// in\n            tag_79:\n              dup1\n              iszero\n              tag_80\n              jumpi\n              dup1\n              0x1f\n              lt\n              tag_81\n              jumpi\n              0x0100\n              dup1\n              dup4\n              sload\n              div\n              mul\n              dup4\n              mstore\n              swap2\n              0x20\n              add\n              swap2\n              jump(tag_80)\n            tag_81:\n              dup3\n              add\n              swap2\n              swap1\n              0x00\n              mstore\n              keccak256(0x00, 0x20)\n              swap1\n            tag_82:\n              dup2\n              sload\n              dup2\n              mstore\n              swap1\n              0x01\n              add\n              swap1\n              0x20\n              add\n              dup1\n              dup4\n              gt\n              tag_82\n              jumpi\n              dup3\n              swap1\n              sub\n              0x1f\n              and\n              dup3\n              add\n              swap2\n            tag_80:\n              pop\n              pop\n              pop\n              pop\n              pop\n              swap1\n              dup1\n              0x01\n              add\n              sload\n              swap1\n              dup1\n              0x02\n              add\n              0x00\n              swap1\n              sload\n              swap1\n              0x0100\n              exp\n              swap1\n              div\n              0xffffffffffffffffffffffffffffffffffffffff\n              and\n              swap1\n              dup1\n              0x02\n              add\n              0x14\n              swap1\n              sload\n              swap1\n              0x0100\n              exp\n              swap1\n              div\n              0xff\n              and\n              swap1\n              dup1\n              0x03\n              add\n              sload\n              swap1\n              pop\n              dup6\n              jump\t// out\n                /* \"Campaign.sol\":836:862  uint public approversCount */\n            tag_49:\n              sload(0x04)\n              dup2\n              jump\t// out\n                /* \"Campaign.sol\":1301:1675  function createRequest(string memory _description, uint _value, address _recipient) public onlyManager {... */\n            tag_55:\n                /* \"Campaign.sol\":955:962  manager */\n              0x00\n              dup1\n              sload\n              swap1\n              0x0100\n              exp\n              swap1\n              div\n              0xffffffffffffffffffffffffffffffffffffffff\n              and\n                /* \"Campaign.sol\":941:962  msg.sender == manager */\n              0xffffffffffffffffffffffffffffffffffffffff\n              and\n                /* \"Campaign.sol\":941:951  msg.sender */\n              caller\n                /* \"Campaign.sol\":941:962  msg.sender == manager */\n              0xffffffffffffffffffffffffffffffffffffffff\n              and\n              eq\n                /* \"Campaign.sol\":933:963  require(msg.sender == manager) */\n              tag_84\n              jumpi\n              0x00\n              dup1\n              revert\n            tag_84:\n                /* \"Campaign.sol\":1414:1440  Request storage newRequest */\n              0x00\n                /* \"Campaign.sol\":1443:1451  requests */\n              0x03\n                /* \"Campaign.sol\":1443:1468  requests[requestsCount++] */\n              0x00\n                /* \"Campaign.sol\":1452:1465  requestsCount */\n              0x05\n              0x00\n                /* \"Campaign.sol\":1452:1467  requestsCount++ */\n              dup2\n              sload\n              dup1\n              swap3\n              swap2\n              swap1\n              tag_86\n              swap1\n              tag_87\n              jump\t// in\n            tag_86:\n              swap2\n              swap1\n              pop\n              sstore\n                /* \"Campaign.sol\":1443:1468  requests[requestsCount++] */\n              dup2\n              mstore\n              0x20\n              add\n              swap1\n              dup2\n              mstore\n              0x20\n              add\n              0x00\n              keccak256\n                /* \"Campaign.sol\":1414:1468  Request storage newRequest = requests[requestsCount++] */\n              swap1\n              pop\n                /* \"Campaign.sol\":1503:1515  _description */\n              dup4\n                /* \"Campaign.sol\":1478:1488  newRequest */\n              dup2\n                /* \"Campaign.sol\":1478:1500  newRequest.description */\n              0x00\n              add\n                /* \"Campaign.sol\":1478:1515  newRequest.description = _description */\n              swap1\n              dup2\n              tag_88\n              swap2\n              swap1\n              tag_89\n              jump\t// in\n            tag_88:\n              pop\n                /* \"Campaign.sol\":1544:1550  _value */\n              dup3\n                /* \"Campaign.sol\":1525:1535  newRequest */\n              dup2\n                /* \"Campaign.sol\":1525:1541  newRequest.value */\n              0x01\n              add\n                /* \"Campaign.sol\":1525:1550  newRequest.value = _value */\n              dup2\n              swap1\n              sstore\n              pop\n                /* \"Campaign.sol\":1583:1593  _recipient */\n              dup2\n                /* \"Campaign.sol\":1560:1570  newRequest */\n              dup2\n                /* \"Campaign.sol\":1560:1580  newRequest.recipient */\n              0x02\n              add\n              0x00\n                /* \"Campaign.sol\":1560:1593  newRequest.recipient = _recipient */\n              0x0100\n              exp\n              dup2\n              sload\n              dup2\n              0xffffffffffffffffffffffffffffffffffffffff\n              mul\n              not\n              and\n              swap1\n              dup4\n              0xffffffffffffffffffffffffffffffffffffffff\n              and\n              mul\n              or\n              swap1\n              sstore\n              pop\n                /* \"Campaign.sol\":1625:1630  false */\n              0x00\n                /* \"Campaign.sol\":1603:1613  newRequest */\n              dup2\n                /* \"Campaign.sol\":1603:1622  newRequest.complete */\n              0x02\n              add\n              0x14\n                /* \"Campaign.sol\":1603:1630  newRequest.complete = false */\n              0x0100\n              exp\n              dup2\n              sload\n              dup2\n              0xff\n              mul\n              not\n              and\n              swap1\n              dup4\n              iszero\n              iszero\n              mul\n              or\n              swap1\n              sstore\n              pop\n                /* \"Campaign.sol\":1667:1668  0 */\n              0x00\n                /* \"Campaign.sol\":1640:1650  newRequest */\n              dup2\n                /* \"Campaign.sol\":1640:1664  newRequest.approvalCount */\n              0x03\n              add\n                /* \"Campaign.sol\":1640:1668  newRequest.approvalCount = 0 */\n              dup2\n              swap1\n              sstore\n              pop\n                /* \"Campaign.sol\":1404:1675  {... */\n              pop\n                /* \"Campaign.sol\":1301:1675  function createRequest(string memory _description, uint _value, address _recipient) public onlyManager {... */\n              pop\n              pop\n              pop\n              jump\t// out\n                /* \"Campaign.sol\":706:737  uint public minimumContribution */\n            tag_58:\n              sload(0x01)\n              dup2\n              jump\t// out\n                /* \"Campaign.sol\":1137:1295  function contribute() public payable{... */\n            tag_61:\n                /* \"Campaign.sol\":1204:1223  minimumContribution */\n              sload(0x01)\n                /* \"Campaign.sol\":1191:1200  msg.value */\n              callvalue\n                /* \"Campaign.sol\":1191:1223  msg.value >= minimumContribution */\n              lt\n              iszero\n                /* \"Campaign.sol\":1183:1224  require(msg.value >= minimumContribution) */\n              tag_91\n              jumpi\n              0x00\n              dup1\n              revert\n            tag_91:\n                /* \"Campaign.sol\":1258:1262  true */\n              0x01\n                /* \"Campaign.sol\":1234:1243  approvers */\n              0x02\n                /* \"Campaign.sol\":1234:1255  approvers[msg.sender] */\n              0x00\n                /* \"Campaign.sol\":1244:1254  msg.sender */\n              caller\n                /* \"Campaign.sol\":1234:1255  approvers[msg.sender] */\n              0xffffffffffffffffffffffffffffffffffffffff\n              and\n              0xffffffffffffffffffffffffffffffffffffffff\n              and\n              dup2\n              mstore\n              0x20\n              add\n              swap1\n              dup2\n              mstore\n              0x20\n              add\n              0x00\n              keccak256\n              0x00\n                /* \"Campaign.sol\":1234:1262  approvers[msg.sender] = true */\n              0x0100\n              exp\n              dup2\n              sload\n              dup2\n              0xff\n              mul\n              not\n              and\n              swap1\n              dup4\n              iszero\n              iszero\n              mul\n              or\n              swap1\n              sstore\n              pop\n                /* \"Campaign.sol\":1272:1286  approversCount */\n              0x04\n              0x00\n                /* \"Campaign.sol\":1272:1288  approversCount++ */\n              dup2\n              sload\n              dup1\n              swap3\n              swap2\n              swap1\n              tag_92\n              swap1\n              tag_87\n              jump\t// in\n            tag_92:\n              swap2\n              swap1\n              pop\n              sstore\n              pop\n                /* \"Campaign.sol\":1137:1295  function contribute() public payable{... */\n              jump\t// out\n                /* \"Campaign.sol\":1681:1952  function approveRequest(uint index) public {... */\n            tag_65:\n                /* \"Campaign.sol\":1734:1757  Request storage request */\n              0x00\n                /* \"Campaign.sol\":1760:1768  requests */\n              0x03\n                /* \"Campaign.sol\":1760:1775  requests[index] */\n              0x00\n                /* \"Campaign.sol\":1769:1774  index */\n              dup4\n                /* \"Campaign.sol\":1760:1775  requests[index] */\n              dup2\n              mstore\n              0x20\n              add\n              swap1\n              dup2\n              mstore\n              0x20\n              add\n              0x00\n              keccak256\n                /* \"Campaign.sol\":1734:1775  Request storage request = requests[index] */\n              swap1\n              pop\n                /* \"Campaign.sol\":1794:1803  approvers */\n              0x02\n                /* \"Campaign.sol\":1794:1815  approvers[msg.sender] */\n              0x00\n                /* \"Campaign.sol\":1804:1814  msg.sender */\n              caller\n                /* \"Campaign.sol\":1794:1815  approvers[msg.sender] */\n              0xffffffffffffffffffffffffffffffffffffffff\n              and\n              0xffffffffffffffffffffffffffffffffffffffff\n              and\n              dup2\n              mstore\n              0x20\n              add\n              swap1\n              dup2\n              mstore\n              0x20\n              add\n              0x00\n              keccak256\n              0x00\n              swap1\n              sload\n              swap1\n              0x0100\n              exp\n              swap1\n              div\n              0xff\n              and\n                /* \"Campaign.sol\":1786:1816  require(approvers[msg.sender]) */\n              tag_94\n              jumpi\n              0x00\n              dup1\n              revert\n            tag_94:\n                /* \"Campaign.sol\":1835:1842  request */\n              dup1\n                /* \"Campaign.sol\":1835:1852  request.approvals */\n              0x04\n              add\n                /* \"Campaign.sol\":1835:1864  request.approvals[msg.sender] */\n              0x00\n                /* \"Campaign.sol\":1853:1863  msg.sender */\n              caller\n                /* \"Campaign.sol\":1835:1864  request.approvals[msg.sender] */\n              0xffffffffffffffffffffffffffffffffffffffff\n              and\n              0xffffffffffffffffffffffffffffffffffffffff\n              and\n              dup2\n              mstore\n              0x20\n              add\n              swap1\n              dup2\n              mstore\n              0x20\n              add\n              0x00\n              keccak256\n              0x00\n              swap1\n              sload\n              swap1\n              0x0100\n              exp\n              swap1\n              div\n              0xff\n              and\n                /* \"Campaign.sol\":1834:1864  !request.approvals[msg.sender] */\n              iszero\n                /* \"Campaign.sol\":1826:1865  require(!request.approvals[msg.sender]) */\n              tag_95\n              jumpi\n              0x00\n              dup1\n              revert\n            tag_95:\n                /* \"Campaign.sol\":1908:1912  true */\n              0x01\n                /* \"Campaign.sol\":1876:1883  request */\n              dup2\n                /* \"Campaign.sol\":1876:1893  request.approvals */\n              0x04\n              add\n                /* \"Campaign.sol\":1876:1905  request.approvals[msg.sender] */\n              0x00\n                /* \"Campaign.sol\":1894:1904  msg.sender */\n              caller\n                /* \"Campaign.sol\":1876:1905  request.approvals[msg.sender] */\n              0xffffffffffffffffffffffffffffffffffffffff\n              and\n              0xffffffffffffffffffffffffffffffffffffffff\n              and\n              dup2\n              mstore\n              0x20\n              add\n              swap1\n              dup2\n              mstore\n              0x20\n              add\n              0x00\n              keccak256\n              0x00\n                /* \"Campaign.sol\":1876:1912  request.approvals[msg.sender] = true */\n              0x0100\n              exp\n              dup2\n              sload\n              dup2\n              0xff\n              mul\n              not\n              and\n              swap1\n              dup4\n              iszero\n              iszero\n              mul\n              or\n              swap1\n              sstore\n              pop\n                /* \"Campaign.sol\":1922:1929  request */\n              dup1\n                /* \"Campaign.sol\":1922:1943  request.approvalCount */\n              0x03\n              add\n              0x00\n                /* \"Campaign.sol\":1922:1945  request.approvalCount++ */\n              dup2\n              sload\n              dup1\n              swap3\n              swap2\n              swap1\n              tag_96\n              swap1\n              tag_87\n              jump\t// in\n            tag_96:\n              swap2\n              swap1\n              pop\n              sstore\n              pop\n                /* \"Campaign.sol\":1724:1952  {... */\n              pop\n                /* \"Campaign.sol\":1681:1952  function approveRequest(uint index) public {... */\n              pop\n              jump\t// out\n                /* \"#utility.yul\":7:82   */\n            tag_97:\n                /* \"#utility.yul\":40:46   */\n              0x00\n                /* \"#utility.yul\":73:75   */\n              0x40\n                /* \"#utility.yul\":67:76   */\n              mload\n                /* \"#utility.yul\":57:76   */\n              swap1\n              pop\n                /* \"#utility.yul\":7:82   */\n              swap1\n              jump\t// out\n                /* \"#utility.yul\":88:205   */\n            tag_98:\n                /* \"#utility.yul\":197:198   */\n              0x00\n                /* \"#utility.yul\":194:195   */\n              dup1\n                /* \"#utility.yul\":187:199   */\n              revert\n                /* \"#utility.yul\":211:328   */\n            tag_99:\n                /* \"#utility.yul\":320:321   */\n              0x00\n                /* \"#utility.yul\":317:318   */\n              dup1\n                /* \"#utility.yul\":310:322   */\n              revert\n                /* \"#utility.yul\":334:411   */\n            tag_100:\n                /* \"#utility.yul\":371:378   */\n              0x00\n                /* \"#utility.yul\":400:405   */\n              dup2\n                /* \"#utility.yul\":389:405   */\n              swap1\n              pop\n                /* \"#utility.yul\":334:411   */\n              swap2\n              swap1\n              pop\n              jump\t// out\n                /* \"#utility.yul\":417:539   */\n            tag_101:\n                /* \"#utility.yul\":490:514   */\n              tag_148\n                /* \"#utility.yul\":508:513   */\n              dup2\n                /* \"#utility.yul\":490:514   */\n              tag_100\n              jump\t// in\n            tag_148:\n                /* \"#utility.yul\":483:488   */\n              dup2\n                /* \"#utility.yul\":480:515   */\n              eq\n                /* \"#utility.yul\":470:533   */\n              tag_149\n              jumpi\n                /* \"#utility.yul\":529:530   */\n              0x00\n                /* \"#utility.yul\":526:527   */\n              dup1\n                /* \"#utility.yul\":519:531   */\n              revert\n                /* \"#utility.yul\":470:533   */\n            tag_149:\n                /* \"#utility.yul\":417:539   */\n              pop\n              jump\t// out\n                /* \"#utility.yul\":545:684   */\n            tag_102:\n                /* \"#utility.yul\":591:596   */\n              0x00\n                /* \"#utility.yul\":629:635   */\n              dup2\n                /* \"#utility.yul\":616:636   */\n              calldataload\n                /* \"#utility.yul\":607:636   */\n              swap1\n              pop\n                /* \"#utility.yul\":645:678   */\n              tag_151\n                /* \"#utility.yul\":672:677   */\n              dup2\n                /* \"#utility.yul\":645:678   */\n              tag_101\n              jump\t// in\n            tag_151:\n                /* \"#utility.yul\":545:684   */\n              swap3\n              swap2\n              pop\n              pop\n              jump\t// out\n                /* \"#utility.yul\":690:1019   */\n            tag_17:\n                /* \"#utility.yul\":749:755   */\n              0x00\n                /* \"#utility.yul\":798:800   */\n              0x20\n                /* \"#utility.yul\":786:795   */\n              dup3\n                /* \"#utility.yul\":777:784   */\n              dup5\n                /* \"#utility.yul\":773:796   */\n              sub\n                /* \"#utility.yul\":769:801   */\n              slt\n                /* \"#utility.yul\":766:885   */\n              iszero\n              tag_153\n              jumpi\n                /* \"#utility.yul\":804:883   */\n              tag_154\n              tag_98\n              jump\t// in\n            tag_154:\n                /* \"#utility.yul\":766:885   */\n            tag_153:\n                /* \"#utility.yul\":924:925   */\n              0x00\n                /* \"#utility.yul\":949:1002   */\n              tag_155\n                /* \"#utility.yul\":994:1001   */\n              dup5\n                /* \"#utility.yul\":985:991   */\n              dup3\n                /* \"#utility.yul\":974:983   */\n              dup6\n                /* \"#utility.yul\":970:992   */\n              add\n                /* \"#utility.yul\":949:1002   */\n              tag_102\n              jump\t// in\n            tag_155:\n                /* \"#utility.yul\":939:1002   */\n              swap2\n              pop\n                /* \"#utility.yul\":895:1012   */\n              pop\n                /* \"#utility.yul\":690:1019   */\n              swap3\n              swap2\n              pop\n              pop\n              jump\t// out\n                /* \"#utility.yul\":1025:1151   */\n            tag_103:\n                /* \"#utility.yul\":1062:1069   */\n              0x00\n                /* \"#utility.yul\":1102:1144   */\n              0xffffffffffffffffffffffffffffffffffffffff\n                /* \"#utility.yul\":1095:1100   */\n              dup3\n                /* \"#utility.yul\":1091:1145   */\n              and\n                /* \"#utility.yul\":1080:1145   */\n              swap1\n              pop\n                /* \"#utility.yul\":1025:1151   */\n              swap2\n              swap1\n              pop\n              jump\t// out\n                /* \"#utility.yul\":1157:1253   */\n            tag_104:\n                /* \"#utility.yul\":1194:1201   */\n              0x00\n                /* \"#utility.yul\":1223:1247   */\n              tag_158\n                /* \"#utility.yul\":1241:1246   */\n              dup3\n                /* \"#utility.yul\":1223:1247   */\n              tag_103\n              jump\t// in\n            tag_158:\n                /* \"#utility.yul\":1212:1247   */\n              swap1\n              pop\n                /* \"#utility.yul\":1157:1253   */\n              swap2\n              swap1\n              pop\n              jump\t// out\n                /* \"#utility.yul\":1259:1381   */\n            tag_105:\n                /* \"#utility.yul\":1332:1356   */\n              tag_160\n                /* \"#utility.yul\":1350:1355   */\n              dup2\n                /* \"#utility.yul\":1332:1356   */\n              tag_104\n              jump\t// in\n            tag_160:\n                /* \"#utility.yul\":1325:1330   */\n              dup2\n                /* \"#utility.yul\":1322:1357   */\n              eq\n                /* \"#utility.yul\":1312:1375   */\n              tag_161\n              jumpi\n                /* \"#utility.yul\":1371:1372   */\n              0x00\n                /* \"#utility.yul\":1368:1369   */\n              dup1\n                /* \"#utility.yul\":1361:1373   */\n              revert\n                /* \"#utility.yul\":1312:1375   */\n            tag_161:\n                /* \"#utility.yul\":1259:1381   */\n              pop\n              jump\t// out\n                /* \"#utility.yul\":1387:1526   */\n            tag_106:\n                /* \"#utility.yul\":1433:1438   */\n              0x00\n                /* \"#utility.yul\":1471:1477   */\n              dup2\n                /* \"#utility.yul\":1458:1478   */\n              calldataload\n                /* \"#utility.yul\":1449:1478   */\n              swap1\n              pop\n                /* \"#utility.yul\":1487:1520   */\n              tag_163\n                /* \"#utility.yul\":1514:1519   */\n              dup2\n                /* \"#utility.yul\":1487:1520   */\n              tag_105\n              jump\t// in\n            tag_163:\n                /* \"#utility.yul\":1387:1526   */\n              swap3\n              swap2\n              pop\n              pop\n              jump\t// out\n                /* \"#utility.yul\":1532:1861   */\n            tag_22:\n                /* \"#utility.yul\":1591:1597   */\n              0x00\n                /* \"#utility.yul\":1640:1642   */\n              0x20\n                /* \"#utility.yul\":1628:1637   */\n              dup3\n                /* \"#utility.yul\":1619:1626   */\n              dup5\n                /* \"#utility.yul\":1615:1638   */\n              sub\n                /* \"#utility.yul\":1611:1643   */\n              slt\n                /* \"#utility.yul\":1608:1727   */\n              iszero\n              tag_165\n              jumpi\n                /* \"#utility.yul\":1646:1725   */\n              tag_166\n              tag_98\n              jump\t// in\n            tag_166:\n                /* \"#utility.yul\":1608:1727   */\n            tag_165:\n                /* \"#utility.yul\":1766:1767   */\n              0x00\n                /* \"#utility.yul\":1791:1844   */\n              tag_167\n                /* \"#utility.yul\":1836:1843   */\n              dup5\n                /* \"#utility.yul\":1827:1833   */\n              dup3\n                /* \"#utility.yul\":1816:1825   */\n              dup6\n                /* \"#utility.yul\":1812:1834   */\n              add\n                /* \"#utility.yul\":1791:1844   */\n              tag_106\n              jump\t// in\n            tag_167:\n                /* \"#utility.yul\":1781:1844   */\n              swap2\n              pop\n                /* \"#utility.yul\":1737:1854   */\n              pop\n                /* \"#utility.yul\":1532:1861   */\n              swap3\n              swap2\n              pop\n              pop\n              jump\t// out\n                /* \"#utility.yul\":1867:1957   */\n            tag_107:\n                /* \"#utility.yul\":1901:1908   */\n              0x00\n                /* \"#utility.yul\":1944:1949   */\n              dup2\n                /* \"#utility.yul\":1937:1950   */\n              iszero\n                /* \"#utility.yul\":1930:1951   */\n              iszero\n                /* \"#utility.yul\":1919:1951   */\n              swap1\n              pop\n                /* \"#utility.yul\":1867:1957   */\n              swap2\n              swap1\n              pop\n              jump\t// out\n                /* \"#utility.yul\":1963:2072   */\n            tag_108:\n                /* \"#utility.yul\":2044:2065   */\n              tag_170\n                /* \"#utility.yul\":2059:2064   */\n              dup2\n                /* \"#utility.yul\":2044:2065   */\n              tag_107\n              jump\t// in\n            tag_170:\n                /* \"#utility.yul\":2039:2042   */\n              dup3\n                /* \"#utility.yul\":2032:2066   */\n              mstore\n                /* \"#utility.yul\":1963:2072   */\n              pop\n              pop\n              jump\t// out\n                /* \"#utility.yul\":2078:2288   */\n            tag_25:\n                /* \"#utility.yul\":2165:2169   */\n              0x00\n                /* \"#utility.yul\":2203:2205   */\n              0x20\n                /* \"#utility.yul\":2192:2201   */\n              dup3\n                /* \"#utility.yul\":2188:2206   */\n              add\n                /* \"#utility.yul\":2180:2206   */\n              swap1\n              pop\n                /* \"#utility.yul\":2216:2281   */\n              tag_172\n                /* \"#utility.yul\":2278:2279   */\n              0x00\n                /* \"#utility.yul\":2267:2276   */\n              dup4\n                /* \"#utility.yul\":2263:2280   */\n              add\n                /* \"#utility.yul\":2254:2260   */\n              dup5\n                /* \"#utility.yul\":2216:2281   */\n              tag_108\n              jump\t// in\n            tag_172:\n                /* \"#utility.yul\":2078:2288   */\n              swap3\n              swap2\n              pop\n              pop\n              jump\t// out\n                /* \"#utility.yul\":2294:2412   */\n            tag_109:\n                /* \"#utility.yul\":2381:2405   */\n              tag_174\n                /* \"#utility.yul\":2399:2404   */\n              dup2\n                /* \"#utility.yul\":2381:2405   */\n              tag_100\n              jump\t// in\n            tag_174:\n                /* \"#utility.yul\":2376:2379   */\n              dup3\n                /* \"#utility.yul\":2369:2406   */\n              mstore\n                /* \"#utility.yul\":2294:2412   */\n              pop\n              pop\n              jump\t// out\n                /* \"#utility.yul\":2418:2640   */\n            tag_30:\n                /* \"#utility.yul\":2511:2515   */\n              0x00\n                /* \"#utility.yul\":2549:2551   */\n              0x20\n                /* \"#utility.yul\":2538:2547   */\n              dup3\n                /* \"#utility.yul\":2534:2552   */\n              add\n                /* \"#utility.yul\":2526:2552   */\n              swap1\n              pop\n                /* \"#utility.yul\":2562:2633   */\n              tag_176\n                /* \"#utility.yul\":2630:2631   */\n              0x00\n                /* \"#utility.yul\":2619:2628   */\n              dup4\n                /* \"#utility.yul\":2615:2632   */\n              add\n                /* \"#utility.yul\":2606:2612   */\n              dup5\n                /* \"#utility.yul\":2562:2633   */\n              tag_109\n              jump\t// in\n            tag_176:\n                /* \"#utility.yul\":2418:2640   */\n              swap3\n              swap2\n              pop\n              pop\n              jump\t// out\n                /* \"#utility.yul\":2646:2764   */\n            tag_110:\n                /* \"#utility.yul\":2733:2757   */\n              tag_178\n                /* \"#utility.yul\":2751:2756   */\n              dup2\n                /* \"#utility.yul\":2733:2757   */\n              tag_104\n              jump\t// in\n            tag_178:\n                /* \"#utility.yul\":2728:2731   */\n              dup3\n                /* \"#utility.yul\":2721:2758   */\n              mstore\n                /* \"#utility.yul\":2646:2764   */\n              pop\n              pop\n              jump\t// out\n                /* \"#utility.yul\":2770:3434   */\n            tag_35:\n                /* \"#utility.yul\":2975:2979   */\n              0x00\n                /* \"#utility.yul\":3013:3016   */\n              0xa0\n                /* \"#utility.yul\":3002:3011   */\n              dup3\n                /* \"#utility.yul\":2998:3017   */\n              add\n                /* \"#utility.yul\":2990:3017   */\n              swap1\n              pop\n                /* \"#utility.yul\":3027:3098   */\n              tag_180\n                /* \"#utility.yul\":3095:3096   */\n              0x00\n                /* \"#utility.yul\":3084:3093   */\n              dup4\n                /* \"#utility.yul\":3080:3097   */\n              add\n                /* \"#utility.yul\":3071:3077   */\n              dup9\n                /* \"#utility.yul\":3027:3098   */\n              tag_109\n              jump\t// in\n            tag_180:\n                /* \"#utility.yul\":3108:3180   */\n              tag_181\n                /* \"#utility.yul\":3176:3178   */\n              0x20\n                /* \"#utility.yul\":3165:3174   */\n              dup4\n                /* \"#utility.yul\":3161:3179   */\n              add\n                /* \"#utility.yul\":3152:3158   */\n              dup8\n                /* \"#utility.yul\":3108:3180   */\n              tag_109\n              jump\t// in\n            tag_181:\n                /* \"#utility.yul\":3190:3262   */\n              tag_182\n                /* \"#utility.yul\":3258:3260   */\n              0x40\n                /* \"#utility.yul\":3247:3256   */\n              dup4\n                /* \"#utility.yul\":3243:3261   */\n              add\n                /* \"#utility.yul\":3234:3240   */\n              dup7\n                /* \"#utility.yul\":3190:3262   */\n              tag_109\n              jump\t// in\n            tag_182:\n                /* \"#utility.yul\":3272:3344   */\n              tag_183\n                /* \"#utility.yul\":3340:3342   */\n              0x60\n                /* \"#utility.yul\":3329:3338   */\n              dup4\n                /* \"#utility.yul\":3325:3343   */\n              add\n                /* \"#utility.yul\":3316:3322   */\n              dup6\n                /* \"#utility.yul\":3272:3344   */\n              tag_109\n              jump\t// in\n            tag_183:\n                /* \"#utility.yul\":3354:3427   */\n              tag_184\n                /* \"#utility.yul\":3422:3425   */\n              0x80\n                /* \"#utility.yul\":3411:3420   */\n              dup4\n                /* \"#utility.yul\":3407:3426   */\n              add\n                /* \"#utility.yul\":3398:3404   */\n              dup5\n                /* \"#utility.yul\":3354:3427   */\n              tag_110\n              jump\t// in\n            tag_184:\n                /* \"#utility.yul\":2770:3434   */\n              swap7\n              swap6\n              pop\n              pop\n              pop\n              pop\n              pop\n              pop\n              jump\t// out\n                /* \"#utility.yul\":3440:3662   */\n            tag_40:\n                /* \"#utility.yul\":3533:3537   */\n              0x00\n                /* \"#utility.yul\":3571:3573   */\n              0x20\n                /* \"#utility.yul\":3560:3569   */\n              dup3\n                /* \"#utility.yul\":3556:3574   */\n              add\n                /* \"#utility.yul\":3548:3574   */\n              swap1\n              pop\n                /* \"#utility.yul\":3584:3655   */\n              tag_186\n                /* \"#utility.yul\":3652:3653   */\n              0x00\n                /* \"#utility.yul\":3641:3650   */\n              dup4\n                /* \"#utility.yul\":3637:3654   */\n              add\n                /* \"#utility.yul\":3628:3634   */\n              dup5\n                /* \"#utility.yul\":3584:3655   */\n              tag_110\n              jump\t// in\n            tag_186:\n                /* \"#utility.yul\":3440:3662   */\n              swap3\n              swap2\n              pop\n              pop\n              jump\t// out\n                /* \"#utility.yul\":3668:3767   */\n            tag_111:\n                /* \"#utility.yul\":3720:3726   */\n              0x00\n                /* \"#utility.yul\":3754:3759   */\n              dup2\n                /* \"#utility.yul\":3748:3760   */\n              mload\n                /* \"#utility.yul\":3738:3760   */\n              swap1\n              pop\n                /* \"#utility.yul\":3668:3767   */\n              swap2\n              swap1\n              pop\n              jump\t// out\n                /* \"#utility.yul\":3773:3942   */\n            tag_112:\n                /* \"#utility.yul\":3857:3868   */\n              0x00\n                /* \"#utility.yul\":3891:3897   */\n              dup3\n                /* \"#utility.yul\":3886:3889   */\n              dup3\n                /* \"#utility.yul\":3879:3898   */\n              mstore\n                /* \"#utility.yul\":3931:3935   */\n              0x20\n                /* \"#utility.yul\":3926:3929   */\n              dup3\n                /* \"#utility.yul\":3922:3936   */\n              add\n                /* \"#utility.yul\":3907:3936   */\n              swap1\n              pop\n                /* \"#utility.yul\":3773:3942   */\n              swap3\n              swap2\n              pop\n              pop\n              jump\t// out\n                /* \"#utility.yul\":3948:4194   */\n            tag_113:\n                /* \"#utility.yul\":4029:4030   */\n              0x00\n                /* \"#utility.yul\":4039:4152   */\n            tag_190:\n                /* \"#utility.yul\":4053:4059   */\n              dup4\n                /* \"#utility.yul\":4050:4051   */\n              dup2\n                /* \"#utility.yul\":4047:4060   */\n              lt\n                /* \"#utility.yul\":4039:4152   */\n              iszero\n              tag_192\n              jumpi\n                /* \"#utility.yul\":4138:4139   */\n              dup1\n                /* \"#utility.yul\":4133:4136   */\n              dup3\n                /* \"#utility.yul\":4129:4140   */\n              add\n                /* \"#utility.yul\":4123:4141   */\n              mload\n                /* \"#utility.yul\":4119:4120   */\n              dup2\n                /* \"#utility.yul\":4114:4117   */\n              dup5\n                /* \"#utility.yul\":4110:4121   */\n              add\n                /* \"#utility.yul\":4103:4142   */\n              mstore\n                /* \"#utility.yul\":4075:4077   */\n              0x20\n                /* \"#utility.yul\":4072:4073   */\n              dup2\n                /* \"#utility.yul\":4068:4078   */\n              add\n                /* \"#utility.yul\":4063:4078   */\n              swap1\n              pop\n                /* \"#utility.yul\":4039:4152   */\n              jump(tag_190)\n            tag_192:\n                /* \"#utility.yul\":4186:4187   */\n              0x00\n                /* \"#utility.yul\":4177:4183   */\n              dup5\n                /* \"#utility.yul\":4172:4175   */\n              dup5\n                /* \"#utility.yul\":4168:4184   */\n              add\n                /* \"#utility.yul\":4161:4188   */\n              mstore\n                /* \"#utility.yul\":4010:4194   */\n              pop\n                /* \"#utility.yul\":3948:4194   */\n              pop\n              pop\n              pop\n              jump\t// out\n                /* \"#utility.yul\":4200:4302   */\n            tag_114:\n                /* \"#utility.yul\":4241:4247   */\n              0x00\n                /* \"#utility.yul\":4292:4294   */\n              0x1f\n                /* \"#utility.yul\":4288:4295   */\n              not\n                /* \"#utility.yul\":4283:4285   */\n              0x1f\n                /* \"#utility.yul\":4276:4281   */\n              dup4\n                /* \"#utility.yul\":4272:4286   */\n              add\n                /* \"#utility.yul\":4268:4296   */\n              and\n                /* \"#utility.yul\":4258:4296   */\n              swap1\n              pop\n                /* \"#utility.yul\":4200:4302   */\n              swap2\n              swap1\n              pop\n              jump\t// out\n                /* \"#utility.yul\":4308:4685   */\n            tag_115:\n                /* \"#utility.yul\":4396:4399   */\n              0x00\n                /* \"#utility.yul\":4424:4463   */\n              tag_195\n                /* \"#utility.yul\":4457:4462   */\n              dup3\n                /* \"#utility.yul\":4424:4463   */\n              tag_111\n              jump\t// in\n            tag_195:\n                /* \"#utility.yul\":4479:4550   */\n              tag_196\n                /* \"#utility.yul\":4543:4549   */\n              dup2\n                /* \"#utility.yul\":4538:4541   */\n              dup6\n                /* \"#utility.yul\":4479:4550   */\n              tag_112\n              jump\t// in\n            tag_196:\n                /* \"#utility.yul\":4472:4550   */\n              swap4\n              pop\n                /* \"#utility.yul\":4559:4624   */\n              tag_197\n                /* \"#utility.yul\":4617:4623   */\n              dup2\n                /* \"#utility.yul\":4612:4615   */\n              dup6\n                /* \"#utility.yul\":4605:4609   */\n              0x20\n                /* \"#utility.yul\":4598:4603   */\n              dup7\n                /* \"#utility.yul\":4594:4610   */\n              add\n                /* \"#utility.yul\":4559:4624   */\n              tag_113\n              jump\t// in\n            tag_197:\n                /* \"#utility.yul\":4649:4678   */\n              tag_198\n                /* \"#utility.yul\":4671:4677   */\n              dup2\n                /* \"#utility.yul\":4649:4678   */\n              tag_114\n              jump\t// in\n            tag_198:\n                /* \"#utility.yul\":4644:4647   */\n              dup5\n                /* \"#utility.yul\":4640:4679   */\n              add\n                /* \"#utility.yul\":4633:4679   */\n              swap2\n              pop\n                /* \"#utility.yul\":4400:4685   */\n              pop\n                /* \"#utility.yul\":4308:4685   */\n              swap3\n              swap2\n              pop\n              pop\n              jump\t// out\n                /* \"#utility.yul\":4691:5434   */\n            tag_46:\n                /* \"#utility.yul\":4910:4914   */\n              0x00\n                /* \"#utility.yul\":4948:4951   */\n              0xa0\n                /* \"#utility.yul\":4937:4946   */\n              dup3\n                /* \"#utility.yul\":4933:4952   */\n              add\n                /* \"#utility.yul\":4925:4952   */\n              swap1\n              pop\n                /* \"#utility.yul\":4998:5007   */\n              dup2\n                /* \"#utility.yul\":4992:4996   */\n              dup2\n                /* \"#utility.yul\":4988:5008   */\n              sub\n                /* \"#utility.yul\":4984:4985   */\n              0x00\n                /* \"#utility.yul\":4973:4982   */\n              dup4\n                /* \"#utility.yul\":4969:4986   */\n              add\n                /* \"#utility.yul\":4962:5009   */\n              mstore\n                /* \"#utility.yul\":5026:5104   */\n              tag_200\n                /* \"#utility.yul\":5099:5103   */\n              dup2\n                /* \"#utility.yul\":5090:5096   */\n              dup9\n                /* \"#utility.yul\":5026:5104   */\n              tag_115\n              jump\t// in\n            tag_200:\n                /* \"#utility.yul\":5018:5104   */\n              swap1\n              pop\n                /* \"#utility.yul\":5114:5186   */\n              tag_201\n                /* \"#utility.yul\":5182:5184   */\n              0x20\n                /* \"#utility.yul\":5171:5180   */\n              dup4\n                /* \"#utility.yul\":5167:5185   */\n              add\n                /* \"#utility.yul\":5158:5164   */\n              dup8\n                /* \"#utility.yul\":5114:5186   */\n              tag_109\n              jump\t// in\n            tag_201:\n                /* \"#utility.yul\":5196:5268   */\n              tag_202\n                /* \"#utility.yul\":5264:5266   */\n              0x40\n                /* \"#utility.yul\":5253:5262   */\n              dup4\n                /* \"#utility.yul\":5249:5267   */\n              add\n                /* \"#utility.yul\":5240:5246   */\n              dup7\n                /* \"#utility.yul\":5196:5268   */\n              tag_110\n              jump\t// in\n            tag_202:\n                /* \"#utility.yul\":5278:5344   */\n              tag_203\n                /* \"#utility.yul\":5340:5342   */\n              0x60\n                /* \"#utility.yul\":5329:5338   */\n              dup4\n                /* \"#utility.yul\":5325:5343   */\n              add\n                /* \"#utility.yul\":5316:5322   */\n              dup6\n                /* \"#utility.yul\":5278:5344   */\n              tag_108\n              jump\t// in\n            tag_203:\n                /* \"#utility.yul\":5354:5427   */\n              tag_204\n                /* \"#utility.yul\":5422:5425   */\n              0x80\n                /* \"#utility.yul\":5411:5420   */\n              dup4\n                /* \"#utility.yul\":5407:5426   */\n              add\n                /* \"#utility.yul\":5398:5404   */\n              dup5\n                /* \"#utility.yul\":5354:5427   */\n              tag_109\n              jump\t// in\n            tag_204:\n                /* \"#utility.yul\":4691:5434   */\n              swap7\n              swap6\n              pop\n              pop\n              pop\n              pop\n              pop\n              pop\n              jump\t// out\n                /* \"#utility.yul\":5440:5557   */\n            tag_116:\n                /* \"#utility.yul\":5549:5550   */\n              0x00\n                /* \"#utility.yul\":5546:5547   */\n              dup1\n                /* \"#utility.yul\":5539:5551   */\n              revert\n                /* \"#utility.yul\":5563:5680   */\n            tag_117:\n                /* \"#utility.yul\":5672:5673   */\n              0x00\n                /* \"#utility.yul\":5669:5670   */\n              dup1\n                /* \"#utility.yul\":5662:5674   */\n              revert\n                /* \"#utility.yul\":5686:5866   */\n            tag_118:\n                /* \"#utility.yul\":5734:5811   */\n              0x4e487b7100000000000000000000000000000000000000000000000000000000\n                /* \"#utility.yul\":5731:5732   */\n              0x00\n                /* \"#utility.yul\":5724:5812   */\n              mstore\n                /* \"#utility.yul\":5831:5835   */\n              0x41\n                /* \"#utility.yul\":5828:5829   */\n              0x04\n                /* \"#utility.yul\":5821:5836   */\n              mstore\n                /* \"#utility.yul\":5855:5859   */\n              0x24\n                /* \"#utility.yul\":5852:5853   */\n              0x00\n                /* \"#utility.yul\":5845:5860   */\n              revert\n                /* \"#utility.yul\":5872:6153   */\n            tag_119:\n                /* \"#utility.yul\":5955:5982   */\n              tag_209\n                /* \"#utility.yul\":5977:5981   */\n              dup3\n                /* \"#utility.yul\":5955:5982   */\n              tag_114\n              jump\t// in\n            tag_209:\n                /* \"#utility.yul\":5947:5953   */\n              dup2\n                /* \"#utility.yul\":5943:5983   */\n              add\n                /* \"#utility.yul\":6085:6091   */\n              dup2\n                /* \"#utility.yul\":6073:6083   */\n              dup2\n                /* \"#utility.yul\":6070:6092   */\n              lt\n                /* \"#utility.yul\":6049:6067   */\n              0xffffffffffffffff\n                /* \"#utility.yul\":6037:6047   */\n              dup3\n                /* \"#utility.yul\":6034:6068   */\n              gt\n                /* \"#utility.yul\":6031:6093   */\n              or\n                /* \"#utility.yul\":6028:6116   */\n              iszero\n              tag_210\n              jumpi\n                /* \"#utility.yul\":6096:6114   */\n              tag_211\n              tag_118\n              jump\t// in\n            tag_211:\n                /* \"#utility.yul\":6028:6116   */\n            tag_210:\n                /* \"#utility.yul\":6136:6146   */\n              dup1\n                /* \"#utility.yul\":6132:6134   */\n              0x40\n                /* \"#utility.yul\":6125:6147   */\n              mstore\n                /* \"#utility.yul\":5915:6153   */\n              pop\n                /* \"#utility.yul\":5872:6153   */\n              pop\n              pop\n              jump\t// out\n                /* \"#utility.yul\":6159:6288   */\n            tag_120:\n                /* \"#utility.yul\":6193:6199   */\n              0x00\n                /* \"#utility.yul\":6220:6240   */\n              tag_213\n              tag_97\n              jump\t// in\n            tag_213:\n                /* \"#utility.yul\":6210:6240   */\n              swap1\n              pop\n                /* \"#utility.yul\":6249:6282   */\n              tag_214\n                /* \"#utility.yul\":6277:6281   */\n              dup3\n                /* \"#utility.yul\":6269:6275   */\n              dup3\n                /* \"#utility.yul\":6249:6282   */\n              tag_119\n              jump\t// in\n            tag_214:\n                /* \"#utility.yul\":6159:6288   */\n              swap2\n              swap1\n              pop\n              jump\t// out\n                /* \"#utility.yul\":6294:6602   */\n            tag_121:\n                /* \"#utility.yul\":6356:6360   */\n              0x00\n                /* \"#utility.yul\":6446:6464   */\n              0xffffffffffffffff\n                /* \"#utility.yul\":6438:6444   */\n              dup3\n                /* \"#utility.yul\":6435:6465   */\n              gt\n                /* \"#utility.yul\":6432:6488   */\n              iszero\n              tag_216\n              jumpi\n                /* \"#utility.yul\":6468:6486   */\n              tag_217\n              tag_118\n              jump\t// in\n            tag_217:\n                /* \"#utility.yul\":6432:6488   */\n            tag_216:\n                /* \"#utility.yul\":6506:6535   */\n              tag_218\n                /* \"#utility.yul\":6528:6534   */\n              dup3\n                /* \"#utility.yul\":6506:6535   */\n              tag_114\n              jump\t// in\n            tag_218:\n                /* \"#utility.yul\":6498:6535   */\n              swap1\n              pop\n                /* \"#utility.yul\":6590:6594   */\n              0x20\n                /* \"#utility.yul\":6584:6588   */\n              dup2\n                /* \"#utility.yul\":6580:6595   */\n              add\n                /* \"#utility.yul\":6572:6595   */\n              swap1\n              pop\n                /* \"#utility.yul\":6294:6602   */\n              swap2\n              swap1\n              pop\n              jump\t// out\n                /* \"#utility.yul\":6608:6754   */\n            tag_122:\n                /* \"#utility.yul\":6705:6711   */\n              dup3\n                /* \"#utility.yul\":6700:6703   */\n              dup2\n                /* \"#utility.yul\":6695:6698   */\n              dup4\n                /* \"#utility.yul\":6682:6712   */\n              calldatacopy\n                /* \"#utility.yul\":6746:6747   */\n              0x00\n                /* \"#utility.yul\":6737:6743   */\n              dup4\n                /* \"#utility.yul\":6732:6735   */\n              dup4\n                /* \"#utility.yul\":6728:6744   */\n              add\n                /* \"#utility.yul\":6721:6748   */\n              mstore\n                /* \"#utility.yul\":6608:6754   */\n              pop\n              pop\n              pop\n              jump\t// out\n                /* \"#utility.yul\":6760:7185   */\n            tag_123:\n                /* \"#utility.yul\":6838:6843   */\n              0x00\n                /* \"#utility.yul\":6863:6929   */\n              tag_221\n                /* \"#utility.yul\":6879:6928   */\n              tag_222\n                /* \"#utility.yul\":6921:6927   */\n              dup5\n                /* \"#utility.yul\":6879:6928   */\n              tag_121\n              jump\t// in\n            tag_222:\n                /* \"#utility.yul\":6863:6929   */\n              tag_120\n              jump\t// in\n            tag_221:\n                /* \"#utility.yul\":6854:6929   */\n              swap1\n              pop\n                /* \"#utility.yul\":6952:6958   */\n              dup3\n                /* \"#utility.yul\":6945:6950   */\n              dup2\n                /* \"#utility.yul\":6938:6959   */\n              mstore\n                /* \"#utility.yul\":6990:6994   */\n              0x20\n                /* \"#utility.yul\":6983:6988   */\n              dup2\n                /* \"#utility.yul\":6979:6995   */\n              add\n                /* \"#utility.yul\":7028:7031   */\n              dup5\n                /* \"#utility.yul\":7019:7025   */\n              dup5\n                /* \"#utility.yul\":7014:7017   */\n              dup5\n                /* \"#utility.yul\":7010:7026   */\n              add\n                /* \"#utility.yul\":7007:7032   */\n              gt\n                /* \"#utility.yul\":7004:7116   */\n              iszero\n              tag_223\n              jumpi\n                /* \"#utility.yul\":7035:7114   */\n              tag_224\n              tag_117\n              jump\t// in\n            tag_224:\n                /* \"#utility.yul\":7004:7116   */\n            tag_223:\n                /* \"#utility.yul\":7125:7179   */\n              tag_225\n                /* \"#utility.yul\":7172:7178   */\n              dup5\n                /* \"#utility.yul\":7167:7170   */\n              dup3\n                /* \"#utility.yul\":7162:7165   */\n              dup6\n                /* \"#utility.yul\":7125:7179   */\n              tag_122\n              jump\t// in\n            tag_225:\n                /* \"#utility.yul\":6844:7185   */\n              pop\n                /* \"#utility.yul\":6760:7185   */\n              swap4\n              swap3\n              pop\n              pop\n              pop\n              jump\t// out\n                /* \"#utility.yul\":7205:7545   */\n            tag_124:\n                /* \"#utility.yul\":7261:7266   */\n              0x00\n                /* \"#utility.yul\":7310:7313   */\n              dup3\n                /* \"#utility.yul\":7303:7307   */\n              0x1f\n                /* \"#utility.yul\":7295:7301   */\n              dup4\n                /* \"#utility.yul\":7291:7308   */\n              add\n                /* \"#utility.yul\":7287:7314   */\n              slt\n                /* \"#utility.yul\":7277:7399   */\n              tag_227\n              jumpi\n                /* \"#utility.yul\":7318:7397   */\n              tag_228\n              tag_116\n              jump\t// in\n            tag_228:\n                /* \"#utility.yul\":7277:7399   */\n            tag_227:\n                /* \"#utility.yul\":7435:7441   */\n              dup2\n                /* \"#utility.yul\":7422:7442   */\n              calldataload\n                /* \"#utility.yul\":7460:7539   */\n              tag_229\n                /* \"#utility.yul\":7535:7538   */\n              dup5\n                /* \"#utility.yul\":7527:7533   */\n              dup3\n                /* \"#utility.yul\":7520:7524   */\n              0x20\n                /* \"#utility.yul\":7512:7518   */\n              dup7\n                /* \"#utility.yul\":7508:7525   */\n              add\n                /* \"#utility.yul\":7460:7539   */\n              tag_123\n              jump\t// in\n            tag_229:\n                /* \"#utility.yul\":7451:7539   */\n              swap2\n              pop\n                /* \"#utility.yul\":7267:7545   */\n              pop\n                /* \"#utility.yul\":7205:7545   */\n              swap3\n              swap2\n              pop\n              pop\n              jump\t// out\n                /* \"#utility.yul\":7551:8350   */\n            tag_54:\n                /* \"#utility.yul\":7638:7644   */\n              0x00\n                /* \"#utility.yul\":7646:7652   */\n              dup1\n                /* \"#utility.yul\":7654:7660   */\n              0x00\n                /* \"#utility.yul\":7703:7705   */\n              0x60\n                /* \"#utility.yul\":7691:7700   */\n              dup5\n                /* \"#utility.yul\":7682:7689   */\n              dup7\n                /* \"#utility.yul\":7678:7701   */\n              sub\n                /* \"#utility.yul\":7674:7706   */\n              slt\n                /* \"#utility.yul\":7671:7790   */\n              iszero\n              tag_231\n              jumpi\n                /* \"#utility.yul\":7709:7788   */\n              tag_232\n              tag_98\n              jump\t// in\n            tag_232:\n                /* \"#utility.yul\":7671:7790   */\n            tag_231:\n                /* \"#utility.yul\":7857:7858   */\n              0x00\n                /* \"#utility.yul\":7846:7855   */\n              dup5\n                /* \"#utility.yul\":7842:7859   */\n              add\n                /* \"#utility.yul\":7829:7860   */\n              calldataload\n                /* \"#utility.yul\":7887:7905   */\n              0xffffffffffffffff\n                /* \"#utility.yul\":7879:7885   */\n              dup2\n                /* \"#utility.yul\":7876:7906   */\n              gt\n                /* \"#utility.yul\":7873:7990   */\n              iszero\n              tag_233\n              jumpi\n                /* \"#utility.yul\":7909:7988   */\n              tag_234\n              tag_99\n              jump\t// in\n            tag_234:\n                /* \"#utility.yul\":7873:7990   */\n            tag_233:\n                /* \"#utility.yul\":8014:8077   */\n              tag_235\n                /* \"#utility.yul\":8069:8076   */\n              dup7\n                /* \"#utility.yul\":8060:8066   */\n              dup3\n                /* \"#utility.yul\":8049:8058   */\n              dup8\n                /* \"#utility.yul\":8045:8067   */\n              add\n                /* \"#utility.yul\":8014:8077   */\n              tag_124\n              jump\t// in\n            tag_235:\n                /* \"#utility.yul\":8004:8077   */\n              swap4\n              pop\n                /* \"#utility.yul\":7800:8087   */\n              pop\n                /* \"#utility.yul\":8126:8128   */\n              0x20\n                /* \"#utility.yul\":8152:8205   */\n              tag_236\n                /* \"#utility.yul\":8197:8204   */\n              dup7\n                /* \"#utility.yul\":8188:8194   */\n              dup3\n                /* \"#utility.yul\":8177:8186   */\n              dup8\n                /* \"#utility.yul\":8173:8195   */\n              add\n                /* \"#utility.yul\":8152:8205   */\n              tag_102\n              jump\t// in\n            tag_236:\n                /* \"#utility.yul\":8142:8205   */\n              swap3\n              pop\n                /* \"#utility.yul\":8097:8215   */\n              pop\n                /* \"#utility.yul\":8254:8256   */\n              0x40\n                /* \"#utility.yul\":8280:8333   */\n              tag_237\n                /* \"#utility.yul\":8325:8332   */\n              dup7\n                /* \"#utility.yul\":8316:8322   */\n              dup3\n                /* \"#utility.yul\":8305:8314   */\n              dup8\n                /* \"#utility.yul\":8301:8323   */\n              add\n                /* \"#utility.yul\":8280:8333   */\n              tag_106\n              jump\t// in\n            tag_237:\n                /* \"#utility.yul\":8270:8333   */\n              swap2\n              pop\n                /* \"#utility.yul\":8225:8343   */\n              pop\n                /* \"#utility.yul\":7551:8350   */\n              swap3\n              pop\n              swap3\n              pop\n              swap3\n              jump\t// out\n                /* \"#utility.yul\":8356:8536   */\n            tag_125:\n                /* \"#utility.yul\":8404:8481   */\n              0x4e487b7100000000000000000000000000000000000000000000000000000000\n                /* \"#utility.yul\":8401:8402   */\n              0x00\n                /* \"#utility.yul\":8394:8482   */\n              mstore\n                /* \"#utility.yul\":8501:8505   */\n              0x11\n                /* \"#utility.yul\":8498:8499   */\n              0x04\n                /* \"#utility.yul\":8491:8506   */\n              mstore\n                /* \"#utility.yul\":8525:8529   */\n              0x24\n                /* \"#utility.yul\":8522:8523   */\n              0x00\n                /* \"#utility.yul\":8515:8530   */\n              revert\n                /* \"#utility.yul\":8542:8952   */\n            tag_71:\n                /* \"#utility.yul\":8582:8589   */\n              0x00\n                /* \"#utility.yul\":8605:8625   */\n              tag_240\n                /* \"#utility.yul\":8623:8624   */\n              dup3\n                /* \"#utility.yul\":8605:8625   */\n              tag_100\n              jump\t// in\n            tag_240:\n                /* \"#utility.yul\":8600:8625   */\n              swap2\n              pop\n                /* \"#utility.yul\":8639:8659   */\n              tag_241\n                /* \"#utility.yul\":8657:8658   */\n              dup4\n                /* \"#utility.yul\":8639:8659   */\n              tag_100\n              jump\t// in\n            tag_241:\n                /* \"#utility.yul\":8634:8659   */\n              swap3\n              pop\n                /* \"#utility.yul\":8694:8695   */\n              dup3\n                /* \"#utility.yul\":8691:8692   */\n              dup3\n                /* \"#utility.yul\":8687:8696   */\n              mul\n                /* \"#utility.yul\":8716:8746   */\n              tag_242\n                /* \"#utility.yul\":8734:8745   */\n              dup2\n                /* \"#utility.yul\":8716:8746   */\n              tag_100\n              jump\t// in\n            tag_242:\n                /* \"#utility.yul\":8705:8746   */\n              swap2\n              pop\n                /* \"#utility.yul\":8895:8896   */\n              dup3\n                /* \"#utility.yul\":8886:8893   */\n              dup3\n                /* \"#utility.yul\":8882:8897   */\n              div\n                /* \"#utility.yul\":8879:8880   */\n              dup5\n                /* \"#utility.yul\":8876:8898   */\n              eq\n                /* \"#utility.yul\":8856:8857   */\n              dup4\n                /* \"#utility.yul\":8849:8858   */\n              iszero\n                /* \"#utility.yul\":8829:8912   */\n              or\n                /* \"#utility.yul\":8806:8945   */\n              tag_243\n              jumpi\n                /* \"#utility.yul\":8925:8943   */\n              tag_244\n              tag_125\n              jump\t// in\n            tag_244:\n                /* \"#utility.yul\":8806:8945   */\n            tag_243:\n                /* \"#utility.yul\":8590:8952   */\n              pop\n                /* \"#utility.yul\":8542:8952   */\n              swap3\n              swap2\n              pop\n              pop\n              jump\t// out\n                /* \"#utility.yul\":8958:9138   */\n            tag_126:\n                /* \"#utility.yul\":9006:9083   */\n              0x4e487b7100000000000000000000000000000000000000000000000000000000\n                /* \"#utility.yul\":9003:9004   */\n              0x00\n                /* \"#utility.yul\":8996:9084   */\n              mstore\n                /* \"#utility.yul\":9103:9107   */\n              0x22\n                /* \"#utility.yul\":9100:9101   */\n              0x04\n                /* \"#utility.yul\":9093:9108   */\n              mstore\n                /* \"#utility.yul\":9127:9131   */\n              0x24\n                /* \"#utility.yul\":9124:9125   */\n              0x00\n                /* \"#utility.yul\":9117:9132   */\n              revert\n                /* \"#utility.yul\":9144:9464   */\n            tag_78:\n                /* \"#utility.yul\":9188:9194   */\n              0x00\n                /* \"#utility.yul\":9225:9226   */\n              0x02\n                /* \"#utility.yul\":9219:9223   */\n              dup3\n                /* \"#utility.yul\":9215:9227   */\n              div\n                /* \"#utility.yul\":9205:9227   */\n              swap1\n              pop\n                /* \"#utility.yul\":9272:9273   */\n              0x01\n                /* \"#utility.yul\":9266:9270   */\n              dup3\n                /* \"#utility.yul\":9262:9274   */\n              and\n                /* \"#utility.yul\":9293:9311   */\n              dup1\n                /* \"#utility.yul\":9283:9364   */\n              tag_247\n              jumpi\n                /* \"#utility.yul\":9349:9353   */\n              0x7f\n                /* \"#utility.yul\":9341:9347   */\n              dup3\n                /* \"#utility.yul\":9337:9354   */\n              and\n                /* \"#utility.yul\":9327:9354   */\n              swap2\n              pop\n                /* \"#utility.yul\":9283:9364   */\n            tag_247:\n                /* \"#utility.yul\":9411:9413   */\n              0x20\n                /* \"#utility.yul\":9403:9409   */\n              dup3\n                /* \"#utility.yul\":9400:9414   */\n              lt\n                /* \"#utility.yul\":9380:9398   */\n              dup2\n                /* \"#utility.yul\":9377:9415   */\n              sub\n                /* \"#utility.yul\":9374:9458   */\n              tag_248\n              jumpi\n                /* \"#utility.yul\":9430:9448   */\n              tag_249\n              tag_126\n              jump\t// in\n            tag_249:\n                /* \"#utility.yul\":9374:9458   */\n            tag_248:\n                /* \"#utility.yul\":9195:9464   */\n              pop\n                /* \"#utility.yul\":9144:9464   */\n              swap2\n              swap1\n              pop\n              jump\t// out\n                /* \"#utility.yul\":9470:9703   */\n            tag_87:\n                /* \"#utility.yul\":9509:9512   */\n              0x00\n                /* \"#utility.yul\":9532:9556   */\n              tag_251\n                /* \"#utility.yul\":9550:9555   */\n              dup3\n                /* \"#utility.yul\":9532:9556   */\n              tag_100\n              jump\t// in\n            tag_251:\n                /* \"#utility.yul\":9523:9556   */\n              swap2\n              pop\n                /* \"#utility.yul\":9578:9644   */\n              0xffffffffffffffffffffffffffffffffffffffffffffffffffffffffffffffff\n                /* \"#utility.yul\":9571:9576   */\n              dup3\n                /* \"#utility.yul\":9568:9645   */\n              sub\n                /* \"#utility.yul\":9565:9668   */\n              tag_252\n              jumpi\n                /* \"#utility.yul\":9648:9666   */\n              tag_253\n              tag_125\n              jump\t// in\n            tag_253:\n                /* \"#utility.yul\":9565:9668   */\n            tag_252:\n                /* \"#utility.yul\":9695:9696   */\n              0x01\n                /* \"#utility.yul\":9688:9693   */\n              dup3\n                /* \"#utility.yul\":9684:9697   */\n              add\n                /* \"#utility.yul\":9677:9697   */\n              swap1\n              pop\n                /* \"#utility.yul\":9470:9703   */\n              swap2\n              swap1\n              pop\n              jump\t// out\n                /* \"#utility.yul\":9709:9850   */\n            tag_127:\n                /* \"#utility.yul\":9758:9762   */\n              0x00\n                /* \"#utility.yul\":9781:9784   */\n              dup2\n                /* \"#utility.yul\":9773:9784   */\n              swap1\n              pop\n                /* \"#utility.yul\":9804:9807   */\n              dup2\n                /* \"#utility.yul\":9801:9802   */\n              0x00\n                /* \"#utility.yul\":9794:9808   */\n              mstore\n                /* \"#utility.yul\":9838:9842   */\n              0x20\n                /* \"#utility.yul\":9835:9836   */\n              0x00\n                /* \"#utility.yul\":9825:9843   */\n              keccak256\n                /* \"#utility.yul\":9817:9843   */\n              swap1\n              pop\n                /* \"#utility.yul\":9709:9850   */\n              swap2\n              swap1\n              pop\n              jump\t// out\n                /* \"#utility.yul\":9856:9949   */\n            tag_128:\n                /* \"#utility.yul\":9893:9899   */\n              0x00\n                /* \"#utility.yul\":9940:9942   */\n              0x20\n                /* \"#utility.yul\":9935:9937   */\n              0x1f\n                /* \"#utility.yul\":9928:9933   */\n              dup4\n                /* \"#utility.yul\":9924:9938   */\n              add\n                /* \"#utility.yul\":9920:9943   */\n              div\n                /* \"#utility.yul\":9910:9943   */\n              swap1\n              pop\n                /* \"#utility.yul\":9856:9949   */\n              swap2\n              swap1\n              pop\n              jump\t// out\n                /* \"#utility.yul\":9955:10062   */\n            tag_129:\n                /* \"#utility.yul\":9999:10007   */\n              0x00\n                /* \"#utility.yul\":10049:10054   */\n              dup3\n                /* \"#utility.yul\":10043:10047   */\n              dup3\n                /* \"#utility.yul\":10039:10055   */\n              shl\n                /* \"#utility.yul\":10018:10055   */\n              swap1\n              pop\n                /* \"#utility.yul\":9955:10062   */\n              swap3\n              swap2\n              pop\n              pop\n              jump\t// out\n                /* \"#utility.yul\":10068:10461   */\n            tag_130:\n                /* \"#utility.yul\":10137:10143   */\n              0x00\n                /* \"#utility.yul\":10187:10188   */\n              0x08\n                /* \"#utility.yul\":10175:10185   */\n              dup4\n                /* \"#utility.yul\":10171:10189   */\n              mul\n                /* \"#utility.yul\":10210:10307   */\n              tag_258\n                /* \"#utility.yul\":10240:10306   */\n              0xffffffffffffffffffffffffffffffffffffffffffffffffffffffffffffffff\n                /* \"#utility.yul\":10229:10238   */\n              dup3\n                /* \"#utility.yul\":10210:10307   */\n              tag_129\n              jump\t// in\n            tag_258:\n                /* \"#utility.yul\":10328:10367   */\n              tag_259\n                /* \"#utility.yul\":10358:10366   */\n              dup7\n                /* \"#utility.yul\":10347:10356   */\n              dup4\n                /* \"#utility.yul\":10328:10367   */\n              tag_129\n              jump\t// in\n            tag_259:\n                /* \"#utility.yul\":10316:10367   */\n              swap6\n              pop\n                /* \"#utility.yul\":10400:10404   */\n              dup1\n                /* \"#utility.yul\":10396:10405   */\n              not\n                /* \"#utility.yul\":10389:10394   */\n              dup5\n                /* \"#utility.yul\":10385:10406   */\n              and\n                /* \"#utility.yul\":10376:10406   */\n              swap4\n              pop\n                /* \"#utility.yul\":10449:10453   */\n              dup1\n                /* \"#utility.yul\":10439:10447   */\n              dup7\n                /* \"#utility.yul\":10435:10454   */\n              and\n                /* \"#utility.yul\":10428:10433   */\n              dup5\n                /* \"#utility.yul\":10425:10455   */\n              or\n                /* \"#utility.yul\":10415:10455   */\n              swap3\n              pop\n                /* \"#utility.yul\":10144:10461   */\n              pop\n              pop\n                /* \"#utility.yul\":10068:10461   */\n              swap4\n              swap3\n              pop\n              pop\n              pop\n              jump\t// out\n                /* \"#utility.yul\":10467:10527   */\n            tag_131:\n                /* \"#utility.yul\":10495:10498   */\n              0x00\n                /* \"#utility.yul\":10516:10521   */\n              dup2\n                /* \"#utility.yul\":10509:10521   */\n              swap1\n              pop\n                /* \"#utility.yul\":10467:10527   */\n              swap2\n              swap1\n              pop\n              jump\t// out\n                /* \"#utility.yul\":10533:10675   */\n            tag_132:\n                /* \"#utility.yul\":10583:10592   */\n              0x00\n                /* \"#utility.yul\":10616:10669   */\n              tag_262\n                /* \"#utility.yul\":10634:10668   */\n              tag_263\n                /* \"#utility.yul\":10643:10667   */\n              tag_264\n                /* \"#utility.yul\":10661:10666   */\n              dup5\n                /* \"#utility.yul\":10643:10667   */\n              tag_100\n              jump\t// in\n            tag_264:\n                /* \"#utility.yul\":10634:10668   */\n              tag_131\n              jump\t// in\n            tag_263:\n                /* \"#utility.yul\":10616:10669   */\n              tag_100\n              jump\t// in\n            tag_262:\n                /* \"#utility.yul\":10603:10669   */\n              swap1\n              pop\n                /* \"#utility.yul\":10533:10675   */\n              swap2\n              swap1\n              pop\n              jump\t// out\n                /* \"#utility.yul\":10681:10756   */\n            tag_133:\n                /* \"#utility.yul\":10724:10727   */\n              0x00\n                /* \"#utility.yul\":10745:10750   */\n              dup2\n                /* \"#utility.yul\":10738:10750   */\n              swap1\n              pop\n                /* \"#utility.yul\":10681:10756   */\n              swap2\n              swap1\n              pop\n              jump\t// out\n                /* \"#utility.yul\":10762:11031   */\n            tag_134:\n                /* \"#utility.yul\":10872:10911   */\n              tag_267\n                /* \"#utility.yul\":10903:10910   */\n              dup4\n                /* \"#utility.yul\":10872:10911   */\n              tag_132\n              jump\t// in\n            tag_267:\n                /* \"#utility.yul\":10933:11024   */\n              tag_268\n                /* \"#utility.yul\":10982:11023   */\n              tag_269\n                /* \"#utility.yul\":11006:11022   */\n              dup3\n                /* \"#utility.yul\":10982:11023   */\n              tag_133\n              jump\t// in\n            tag_269:\n                /* \"#utility.yul\":10974:10980   */\n              dup5\n                /* \"#utility.yul\":10967:10971   */\n              dup5\n                /* \"#utility.yul\":10961:10972   */\n              sload\n                /* \"#utility.yul\":10933:11024   */\n              tag_130\n              jump\t// in\n            tag_268:\n                /* \"#utility.yul\":10927:10931   */\n              dup3\n                /* \"#utility.yul\":10920:11025   */\n              sstore\n                /* \"#utility.yul\":10838:11031   */\n              pop\n                /* \"#utility.yul\":10762:11031   */\n              pop\n              pop\n              pop\n              jump\t// out\n                /* \"#utility.yul\":11037:11110   */\n            tag_135:\n                /* \"#utility.yul\":11082:11085   */\n              0x00\n                /* \"#utility.yul\":11037:11110   */\n              swap1\n              jump\t// out\n                /* \"#utility.yul\":11116:11305   */\n            tag_136:\n                /* \"#utility.yul\":11193:11225   */\n              tag_272\n              tag_135\n              jump\t// in\n            tag_272:\n                /* \"#utility.yul\":11234:11299   */\n              tag_273\n                /* \"#utility.yul\":11292:11298   */\n              dup2\n                /* \"#utility.yul\":11284:11290   */\n              dup5\n                /* \"#utility.yul\":11278:11282   */\n              dup5\n                /* \"#utility.yul\":11234:11299   */\n              tag_134\n              jump\t// in\n            tag_273:\n                /* \"#utility.yul\":11169:11305   */\n              pop\n                /* \"#utility.yul\":11116:11305   */\n              pop\n              pop\n              jump\t// out\n                /* \"#utility.yul\":11311:11497   */\n            tag_137:\n                /* \"#utility.yul\":11371:11491   */\n            tag_275:\n                /* \"#utility.yul\":11388:11391   */\n              dup2\n                /* \"#utility.yul\":11381:11386   */\n              dup2\n                /* \"#utility.yul\":11378:11392   */\n              lt\n                /* \"#utility.yul\":11371:11491   */\n              iszero\n              tag_277\n              jumpi\n                /* \"#utility.yul\":11442:11481   */\n              tag_278\n                /* \"#utility.yul\":11479:11480   */\n              0x00\n                /* \"#utility.yul\":11472:11477   */\n              dup3\n                /* \"#utility.yul\":11442:11481   */\n              tag_136\n              jump\t// in\n            tag_278:\n                /* \"#utility.yul\":11415:11416   */\n              0x01\n                /* \"#utility.yul\":11408:11413   */\n              dup2\n                /* \"#utility.yul\":11404:11417   */\n              add\n                /* \"#utility.yul\":11395:11417   */\n              swap1\n              pop\n                /* \"#utility.yul\":11371:11491   */\n              jump(tag_275)\n            tag_277:\n                /* \"#utility.yul\":11311:11497   */\n              pop\n              pop\n              jump\t// out\n                /* \"#utility.yul\":11503:12046   */\n            tag_138:\n                /* \"#utility.yul\":11604:11606   */\n              0x1f\n                /* \"#utility.yul\":11599:11602   */\n              dup3\n                /* \"#utility.yul\":11596:11607   */\n              gt\n                /* \"#utility.yul\":11593:12039   */\n              iszero\n              tag_280\n              jumpi\n                /* \"#utility.yul\":11638:11676   */\n              tag_281\n                /* \"#utility.yul\":11670:11675   */\n              dup2\n                /* \"#utility.yul\":11638:11676   */\n              tag_127\n              jump\t// in\n            tag_281:\n                /* \"#utility.yul\":11722:11751   */\n              tag_282\n                /* \"#utility.yul\":11740:11750   */\n              dup5\n                /* \"#utility.yul\":11722:11751   */\n              tag_128\n              jump\t// in\n            tag_282:\n                /* \"#utility.yul\":11712:11720   */\n              dup2\n                /* \"#utility.yul\":11708:11752   */\n              add\n                /* \"#utility.yul\":11905:11907   */\n              0x20\n                /* \"#utility.yul\":11893:11903   */\n              dup6\n                /* \"#utility.yul\":11890:11908   */\n              lt\n                /* \"#utility.yul\":11887:11936   */\n              iszero\n              tag_283\n              jumpi\n                /* \"#utility.yul\":11926:11934   */\n              dup2\n                /* \"#utility.yul\":11911:11934   */\n              swap1\n              pop\n                /* \"#utility.yul\":11887:11936   */\n            tag_283:\n                /* \"#utility.yul\":11949:12029   */\n              tag_284\n                /* \"#utility.yul\":12005:12027   */\n              tag_285\n                /* \"#utility.yul\":12023:12026   */\n              dup6\n                /* \"#utility.yul\":12005:12027   */\n              tag_128\n              jump\t// in\n            tag_285:\n                /* \"#utility.yul\":11995:12003   */\n              dup4\n                /* \"#utility.yul\":11991:12028   */\n              add\n                /* \"#utility.yul\":11978:11989   */\n              dup3\n                /* \"#utility.yul\":11949:12029   */\n              tag_137\n              jump\t// in\n            tag_284:\n                /* \"#utility.yul\":11608:12039   */\n              pop\n              pop\n                /* \"#utility.yul\":11593:12039   */\n            tag_280:\n                /* \"#utility.yul\":11503:12046   */\n              pop\n              pop\n              pop\n              jump\t// out\n                /* \"#utility.yul\":12052:12169   */\n            tag_139:\n                /* \"#utility.yul\":12106:12114   */\n              0x00\n                /* \"#utility.yul\":12156:12161   */\n              dup3\n                /* \"#utility.yul\":12150:12154   */\n              dup3\n                /* \"#utility.yul\":12146:12162   */\n              shr\n                /* \"#utility.yul\":12125:12162   */\n              swap1\n              pop\n                /* \"#utility.yul\":12052:12169   */\n              swap3\n              swap2\n              pop\n              pop\n              jump\t// out\n                /* \"#utility.yul\":12175:12344   */\n            tag_140:\n                /* \"#utility.yul\":12219:12225   */\n              0x00\n                /* \"#utility.yul\":12252:12303   */\n              tag_288\n                /* \"#utility.yul\":12300:12301   */\n              0x00\n                /* \"#utility.yul\":12296:12302   */\n              not\n                /* \"#utility.yul\":12288:12293   */\n              dup5\n                /* \"#utility.yul\":12285:12286   */\n              0x08\n                /* \"#utility.yul\":12281:12294   */\n              mul\n                /* \"#utility.yul\":12252:12303   */\n              tag_139\n              jump\t// in\n            tag_288:\n                /* \"#utility.yul\":12248:12304   */\n              not\n                /* \"#utility.yul\":12333:12337   */\n              dup1\n                /* \"#utility.yul\":12327:12331   */\n              dup4\n                /* \"#utility.yul\":12323:12338   */\n              and\n                /* \"#utility.yul\":12313:12338   */\n              swap2\n              pop\n                /* \"#utility.yul\":12226:12344   */\n              pop\n                /* \"#utility.yul\":12175:12344   */\n              swap3\n              swap2\n              pop\n              pop\n              jump\t// out\n                /* \"#utility.yul\":12349:12644   */\n            tag_141:\n                /* \"#utility.yul\":12425:12429   */\n              0x00\n                /* \"#utility.yul\":12571:12600   */\n              tag_290\n                /* \"#utility.yul\":12596:12599   */\n              dup4\n                /* \"#utility.yul\":12590:12594   */\n              dup4\n                /* \"#utility.yul\":12571:12600   */\n              tag_140\n              jump\t// in\n            tag_290:\n                /* \"#utility.yul\":12563:12600   */\n              swap2\n              pop\n                /* \"#utility.yul\":12633:12636   */\n              dup3\n                /* \"#utility.yul\":12630:12631   */\n              0x02\n                /* \"#utility.yul\":12626:12637   */\n              mul\n                /* \"#utility.yul\":12620:12624   */\n              dup3\n                /* \"#utility.yul\":12617:12638   */\n              or\n                /* \"#utility.yul\":12609:12638   */\n              swap1\n              pop\n                /* \"#utility.yul\":12349:12644   */\n              swap3\n              swap2\n              pop\n              pop\n              jump\t// out\n                /* \"#utility.yul\":12649:14044   */\n            tag_89:\n                /* \"#utility.yul\":12766:12803   */\n              tag_292\n                /* \"#utility.yul\":12799:12802   */\n              dup3\n                /* \"#utility.yul\":12766:12803   */\n              tag_111\n              jump\t// in\n            tag_292:\n                /* \"#utility.yul\":12868:12886   */\n              0xffffffffffffffff\n                /* \"#utility.yul\":12860:12866   */\n              dup2\n                /* \"#utility.yul\":12857:12887   */\n              gt\n                /* \"#utility.yul\":12854:12910   */\n              iszero\n              tag_293\n              jumpi\n                /* \"#utility.yul\":12890:12908   */\n              tag_294\n              tag_118\n              jump\t// in\n            tag_294:\n                /* \"#utility.yul\":12854:12910   */\n            tag_293:\n                /* \"#utility.yul\":12934:12972   */\n              tag_295\n                /* \"#utility.yul\":12966:12970   */\n              dup3\n                /* \"#utility.yul\":12960:12971   */\n              sload\n                /* \"#utility.yul\":12934:12972   */\n              tag_78\n              jump\t// in\n            tag_295:\n                /* \"#utility.yul\":13019:13086   */\n              tag_296\n                /* \"#utility.yul\":13079:13085   */\n              dup3\n                /* \"#utility.yul\":13071:13077   */\n              dup3\n                /* \"#utility.yul\":13065:13069   */\n              dup6\n                /* \"#utility.yul\":13019:13086   */\n              tag_138\n              jump\t// in\n            tag_296:\n                /* \"#utility.yul\":13113:13114   */\n              0x00\n                /* \"#utility.yul\":13137:13141   */\n              0x20\n                /* \"#utility.yul\":13124:13141   */\n              swap1\n              pop\n                /* \"#utility.yul\":13169:13171   */\n              0x1f\n                /* \"#utility.yul\":13161:13167   */\n              dup4\n                /* \"#utility.yul\":13158:13172   */\n              gt\n                /* \"#utility.yul\":13186:13187   */\n              0x01\n                /* \"#utility.yul\":13181:13799   */\n              dup2\n              eq\n              tag_298\n              jumpi\n                /* \"#utility.yul\":13843:13844   */\n              0x00\n                /* \"#utility.yul\":13860:13866   */\n              dup5\n                /* \"#utility.yul\":13857:13934   */\n              iszero\n              tag_299\n              jumpi\n                /* \"#utility.yul\":13909:13918   */\n              dup3\n                /* \"#utility.yul\":13904:13907   */\n              dup8\n                /* \"#utility.yul\":13900:13919   */\n              add\n                /* \"#utility.yul\":13894:13920   */\n              mload\n                /* \"#utility.yul\":13885:13920   */\n              swap1\n              pop\n                /* \"#utility.yul\":13857:13934   */\n            tag_299:\n                /* \"#utility.yul\":13960:14027   */\n              tag_300\n                /* \"#utility.yul\":14020:14026   */\n              dup6\n                /* \"#utility.yul\":14013:14018   */\n              dup3\n                /* \"#utility.yul\":13960:14027   */\n              tag_141\n              jump\t// in\n            tag_300:\n                /* \"#utility.yul\":13954:13958   */\n              dup7\n                /* \"#utility.yul\":13947:14028   */\n              sstore\n                /* \"#utility.yul\":13816:14038   */\n              pop\n                /* \"#utility.yul\":13151:14038   */\n              jump(tag_297)\n                /* \"#utility.yul\":13181:13799   */\n            tag_298:\n                /* \"#utility.yul\":13233:13237   */\n              0x1f\n                /* \"#utility.yul\":13229:13238   */\n              not\n                /* \"#utility.yul\":13221:13227   */\n              dup5\n                /* \"#utility.yul\":13217:13239   */\n              and\n                /* \"#utility.yul\":13267:13304   */\n              tag_301\n                /* \"#utility.yul\":13299:13303   */\n              dup7\n                /* \"#utility.yul\":13267:13304   */\n              tag_127\n              jump\t// in\n            tag_301:\n                /* \"#utility.yul\":13326:13327   */\n              0x00\n                /* \"#utility.yul\":13340:13548   */\n            tag_302:\n                /* \"#utility.yul\":13354:13361   */\n              dup3\n                /* \"#utility.yul\":13351:13352   */\n              dup2\n                /* \"#utility.yul\":13348:13362   */\n              lt\n                /* \"#utility.yul\":13340:13548   */\n              iszero\n              tag_304\n              jumpi\n                /* \"#utility.yul\":13433:13442   */\n              dup5\n                /* \"#utility.yul\":13428:13431   */\n              dup10\n                /* \"#utility.yul\":13424:13443   */\n              add\n                /* \"#utility.yul\":13418:13444   */\n              mload\n                /* \"#utility.yul\":13410:13416   */\n              dup3\n                /* \"#utility.yul\":13403:13445   */\n              sstore\n                /* \"#utility.yul\":13484:13485   */\n              0x01\n                /* \"#utility.yul\":13476:13482   */\n              dup3\n                /* \"#utility.yul\":13472:13486   */\n              add\n                /* \"#utility.yul\":13462:13486   */\n              swap2\n              pop\n                /* \"#utility.yul\":13531:13533   */\n              0x20\n                /* \"#utility.yul\":13520:13529   */\n              dup6\n                /* \"#utility.yul\":13516:13534   */\n              add\n                /* \"#utility.yul\":13503:13534   */\n              swap5\n              pop\n                /* \"#utility.yul\":13377:13381   */\n              0x20\n                /* \"#utility.yul\":13374:13375   */\n              dup2\n                /* \"#utility.yul\":13370:13382   */\n              add\n                /* \"#utility.yul\":13365:13382   */\n              swap1\n              pop\n                /* \"#utility.yul\":13340:13548   */\n              jump(tag_302)\n            tag_304:\n                /* \"#utility.yul\":13576:13582   */\n              dup7\n                /* \"#utility.yul\":13567:13574   */\n              dup4\n                /* \"#utility.yul\":13564:13583   */\n              lt\n                /* \"#utility.yul\":13561:13740   */\n              iszero\n              tag_305\n              jumpi\n                /* \"#utility.yul\":13634:13643   */\n              dup5\n                /* \"#utility.yul\":13629:13632   */\n              dup10\n                /* \"#utility.yul\":13625:13644   */\n              add\n                /* \"#utility.yul\":13619:13645   */\n              mload\n                /* \"#utility.yul\":13677:13725   */\n              tag_306\n                /* \"#utility.yul\":13719:13723   */\n              0x1f\n                /* \"#utility.yul\":13711:13717   */\n              dup10\n                /* \"#utility.yul\":13707:13724   */\n              and\n                /* \"#utility.yul\":13696:13705   */\n              dup3\n                /* \"#utility.yul\":13677:13725   */\n              tag_140\n              jump\t// in\n            tag_306:\n                /* \"#utility.yul\":13669:13675   */\n              dup4\n                /* \"#utility.yul\":13662:13726   */\n              sstore\n                /* \"#utility.yul\":13584:13740   */\n              pop\n                /* \"#utility.yul\":13561:13740   */\n            tag_305:\n                /* \"#utility.yul\":13786:13787   */\n              0x01\n                /* \"#utility.yul\":13782:13783   */\n              0x02\n                /* \"#utility.yul\":13774:13780   */\n              dup9\n                /* \"#utility.yul\":13770:13784   */\n              mul\n                /* \"#utility.yul\":13766:13788   */\n              add\n                /* \"#utility.yul\":13760:13764   */\n              dup9\n                /* \"#utility.yul\":13753:13789   */\n              sstore\n                /* \"#utility.yul\":13188:13799   */\n              pop\n              pop\n              pop\n                /* \"#utility.yul\":13151:14038   */\n            tag_297:\n              pop\n                /* \"#utility.yul\":12741:14044   */\n              pop\n              pop\n              pop\n                /* \"#utility.yul\":12649:14044   */\n              pop\n              pop\n              jump\t// out\n\n            auxdata: 0xa26469706673582212206885f0f036d5de330ee3d2b1212cdd2b7379cb2b36755bdde3242683a404ab6a64736f6c63430008120033\n        }\n    }\n\n    auxdata: 0xa26469706673582212204ad46aa09e76166461379ac53cbace8bcd68230cb0bc95a8cbe4b8ed304cc6c464736f6c63430008120033\n}\n","bytecode":{"linkReferences":{},"object":"608060405234801561001057600080fd5b5061160a806100206000396000f3fe608060405234801561001057600080fd5b50600436106100415760003560e01c8063339d50a5146100465780634acb9d4f14610076578063a3303a7514610094575b600080fd5b610060600480360381019061005b9190610266565b6100b0565b60405161006d91906102d4565b60405180910390f35b61007e6100ef565b60405161008b91906103ad565b60405180910390f35b6100ae60048036038101906100a99190610266565b61017d565b005b600081815481106100c057600080fd5b906000526020600020016000915054906101000a900473ffffffffffffffffffffffffffffffffffffffff1681565b6060600080548060200260200160405190810160405280929190818152602001828054801561017357602002820191906000526020600020905b8160009054906101000a900473ffffffffffffffffffffffffffffffffffffffff1673ffffffffffffffffffffffffffffffffffffffff1681526020019060010190808311610129575b5050505050905090565b6000338260405161018d9061021e565b6101989291906103de565b604051809103906000f0801580156101b4573d6000803e3d6000fd5b5090506000819080600181540180825580915050600190039060005260206000200160009091909190916101000a81548173ffffffffffffffffffffffffffffffffffffffff021916908373ffffffffffffffffffffffffffffffffffffffff1602179055505050565b6111cd8061040883390190565b600080fd5b6000819050919050565b61024381610230565b811461024e57600080fd5b50565b6000813590506102608161023a565b92915050565b60006020828403121561027c5761027b61022b565b5b600061028a84828501610251565b91505092915050565b600073ffffffffffffffffffffffffffffffffffffffff82169050919050565b60006102be82610293565b9050919050565b6102ce816102b3565b82525050565b60006020820190506102e960008301846102c5565b92915050565b600081519050919050565b600082825260208201905092915050565b6000819050602082019050919050565b610324816102b3565b82525050565b6000610336838361031b565b60208301905092915050565b6000602082019050919050565b600061035a826102ef565b61036481856102fa565b935061036f8361030b565b8060005b838110156103a0578151610387888261032a565b975061039283610342565b925050600181019050610373565b5085935050505092915050565b600060208201905081810360008301526103c7818461034f565b905092915050565b6103d881610230565b82525050565b60006040820190506103f360008301856102c5565b61040060208301846103cf565b939250505056fe60806040523480156200001157600080fd5b50604051620011cd380380620011cd83398181016040528101906200003791906200012b565b816000806101000a81548173ffffffffffffffffffffffffffffffffffffffff021916908373ffffffffffffffffffffffffffffffffffffffff16021790555080600181905550505062000172565b600080fd5b600073ffffffffffffffffffffffffffffffffffffffff82169050919050565b6000620000b8826200008b565b9050919050565b620000ca81620000ab565b8114620000d657600080fd5b50565b600081519050620000ea81620000bf565b92915050565b6000819050919050565b6200010581620000f0565b81146200011157600080fd5b50565b6000815190506200012581620000fa565b92915050565b6000806040838503121562000145576200014462000086565b5b60006200015585828601620000d9565b9250506020620001688582860162000114565b9150509250929050565b61104b80620001826000396000f3fe60806040526004361061009c5760003560e01c806381d12c581161006457806381d12c581461018c57806382fde093146101cd5780638a9cfd55146101f8578063937e09b114610221578063d7bb99ba1461024c578063d7d1bbdb146102565761009c565b806303441006146100a15780630a144391146100ca5780633fad1834146101075780634051ddac14610132578063481c6a7514610161575b600080fd5b3480156100ad57600080fd5b506100c860048036038101906100c3919061085b565b61027f565b005b3480156100d657600080fd5b506100f160048036038101906100ec91906108e6565b6103b9565b6040516100fe919061092e565b60405180910390f35b34801561011357600080fd5b5061011c6103d9565b6040516101299190610958565b60405180910390f35b34801561013e57600080fd5b506101476103e3565b604051610158959493929190610982565b60405180910390f35b34801561016d57600080fd5b50610176610427565b60405161018391906109d5565b60405180910390f35b34801561019857600080fd5b506101b360048036038101906101ae919061085b565b61044b565b6040516101c4959493929190610a80565b60405180910390f35b3480156101d957600080fd5b506101e2610536565b6040516101ef9190610958565b60405180910390f35b34801561020457600080fd5b5061021f600480360381019061021a9190610c0f565b61053c565b005b34801561022d57600080fd5b5061023661064c565b6040516102439190610958565b60405180910390f35b610254610652565b005b34801561026257600080fd5b5061027d6004803603810190610278919061085b565b6106d3565b005b60008054906101000a900473ffffffffffffffffffffffffffffffffffffffff1673ffffffffffffffffffffffffffffffffffffffff163373ffffffffffffffffffffffffffffffffffffffff16146102d757600080fd5b60006003600083815260200190815260200160002090508060020160149054906101000a900460ff161561030a57600080fd5b6004546002826003015461031e9190610cad565b101561032957600080fd5b8060020160009054906101000a900473ffffffffffffffffffffffffffffffffffffffff1673ffffffffffffffffffffffffffffffffffffffff166108fc82600101549081150290604051600060405180830381858888f19350505050158015610397573d6000803e3d6000fd5b5060018160020160146101000a81548160ff0219169083151502179055505050565b60026020528060005260406000206000915054906101000a900460ff1681565b6000600554905090565b60008060008060006001544760055460045460008054906101000a900473ffffffffffffffffffffffffffffffffffffffff16945094509450945094509091929394565b60008054906101000a900473ffffffffffffffffffffffffffffffffffffffff1681565b600360205280600052604060002060009150905080600001805461046e90610d1e565b80601f016020809104026020016040519081016040528092919081815260200182805461049a90610d1e565b80156104e75780601f106104bc576101008083540402835291602001916104e7565b820191906000526020600020905b8154815290600101906020018083116104ca57829003601f168201915b5050505050908060010154908060020160009054906101000a900473ffffffffffffffffffffffffffffffffffffffff16908060020160149054906101000a900460ff16908060030154905085565b60045481565b60008054906101000a900473ffffffffffffffffffffffffffffffffffffffff1673ffffffffffffffffffffffffffffffffffffffff163373ffffffffffffffffffffffffffffffffffffffff161461059457600080fd5b600060036000600560008154809291906105ad90610d4f565b9190505581526020019081526020016000209050838160000190816105d29190610f43565b50828160010181905550818160020160006101000a81548173ffffffffffffffffffffffffffffffffffffffff021916908373ffffffffffffffffffffffffffffffffffffffff16021790555060008160020160146101000a81548160ff0219169083151502179055506000816003018190555050505050565b60015481565b60015434101561066157600080fd5b6001600260003373ffffffffffffffffffffffffffffffffffffffff1673ffffffffffffffffffffffffffffffffffffffff16815260200190815260200160002060006101000a81548160ff021916908315150217905550600460008154809291906106cc90610d4f565b9190505550565b6000600360008381526020019081526020016000209050600260003373ffffffffffffffffffffffffffffffffffffffff1673ffffffffffffffffffffffffffffffffffffffff16815260200190815260200160002060009054906101000a900460ff1661074057600080fd5b8060040160003373ffffffffffffffffffffffffffffffffffffffff1673ffffffffffffffffffffffffffffffffffffffff16815260200190815260200160002060009054906101000a900460ff161561079957600080fd5b60018160040160003373ffffffffffffffffffffffffffffffffffffffff1673ffffffffffffffffffffffffffffffffffffffff16815260200190815260200160002060006101000a81548160ff02191690831515021790555080600301600081548092919061080890610d4f565b91905055505050565b6000604051905090565b600080fd5b600080fd5b6000819050919050565b61083881610825565b811461084357600080fd5b50565b6000813590506108558161082f565b92915050565b6000602082840312156108715761087061081b565b5b600061087f84828501610846565b91505092915050565b600073ffffffffffffffffffffffffffffffffffffffff82169050919050565b60006108b382610888565b9050919050565b6108c3816108a8565b81146108ce57600080fd5b50565b6000813590506108e0816108ba565b92915050565b6000602082840312156108fc576108fb61081b565b5b600061090a848285016108d1565b91505092915050565b60008115159050919050565b61092881610913565b82525050565b6000602082019050610943600083018461091f565b92915050565b61095281610825565b82525050565b600060208201905061096d6000830184610949565b92915050565b61097c816108a8565b82525050565b600060a0820190506109976000830188610949565b6109a46020830187610949565b6109b16040830186610949565b6109be6060830185610949565b6109cb6080830184610973565b9695505050505050565b60006020820190506109ea6000830184610973565b92915050565b600081519050919050565b600082825260208201905092915050565b60005b83811015610a2a578082015181840152602081019050610a0f565b60008484015250505050565b6000601f19601f8301169050919050565b6000610a52826109f0565b610a5c81856109fb565b9350610a6c818560208601610a0c565b610a7581610a36565b840191505092915050565b600060a0820190508181036000830152610a9a8188610a47565b9050610aa96020830187610949565b610ab66040830186610973565b610ac3606083018561091f565b610ad06080830184610949565b9695505050505050565b600080fd5b600080fd5b7f4e487b7100000000000000000000000000000000000000000000000000000000600052604160045260246000fd5b610b1c82610a36565b810181811067ffffffffffffffff82111715610b3b57610b3a610ae4565b5b80604052505050565b6000610b4e610811565b9050610b5a8282610b13565b919050565b600067ffffffffffffffff821115610b7a57610b79610ae4565b5b610b8382610a36565b9050602081019050919050565b82818337600083830152505050565b6000610bb2610bad84610b5f565b610b44565b905082815260208101848484011115610bce57610bcd610adf565b5b610bd9848285610b90565b509392505050565b600082601f830112610bf657610bf5610ada565b5b8135610c06848260208601610b9f565b91505092915050565b600080600060608486031215610c2857610c2761081b565b5b600084013567ffffffffffffffff811115610c4657610c45610820565b5b610c5286828701610be1565b9350506020610c6386828701610846565b9250506040610c74868287016108d1565b9150509250925092565b7f4e487b7100000000000000000000000000000000000000000000000000000000600052601160045260246000fd5b6000610cb882610825565b9150610cc383610825565b9250828202610cd181610825565b91508282048414831517610ce857610ce7610c7e565b5b5092915050565b7f4e487b7100000000000000000000000000000000000000000000000000000000600052602260045260246000fd5b60006002820490506001821680610d3657607f821691505b602082108103610d4957610d48610cef565b5b50919050565b6000610d5a82610825565b91507fffffffffffffffffffffffffffffffffffffffffffffffffffffffffffffffff8203610d8c57610d8b610c7e565b5b600182019050919050565b60008190508160005260206000209050919050565b60006020601f8301049050919050565b600082821b905092915050565b600060088302610df97fffffffffffffffffffffffffffffffffffffffffffffffffffffffffffffffff82610dbc565b610e038683610dbc565b95508019841693508086168417925050509392505050565b6000819050919050565b6000610e40610e3b610e3684610825565b610e1b565b610825565b9050919050565b6000819050919050565b610e5a83610e25565b610e6e610e6682610e47565b848454610dc9565b825550505050565b600090565b610e83610e76565b610e8e818484610e51565b505050565b5b81811015610eb257610ea7600082610e7b565b600181019050610e94565b5050565b601f821115610ef757610ec881610d97565b610ed184610dac565b81016020851015610ee0578190505b610ef4610eec85610dac565b830182610e93565b50505b505050565b600082821c905092915050565b6000610f1a60001984600802610efc565b1980831691505092915050565b6000610f338383610f09565b9150826002028217905092915050565b610f4c826109f0565b67ffffffffffffffff811115610f6557610f64610ae4565b5b610f6f8254610d1e565b610f7a828285610eb6565b600060209050601f831160018114610fad5760008415610f9b578287015190505b610fa58582610f27565b86555061100d565b601f198416610fbb86610d97565b60005b82811015610fe357848901518255600182019150602085019450602081019050610fbe565b868310156110005784890151610ffc601f891682610f09565b8355505b6001600288020188555050505b50505050505056fea26469706673582212206885f0f036d5de330ee3d2b1212cdd2b7379cb2b36755bdde3242683a404ab6a64736f6c63430008120033a26469706673582212204ad46aa09e76166461379ac53cbace8bcd68230cb0bc95a8cbe4b8ed304cc6c464736f6c63430008120033","opcodes":"PUSH1 0x80 PUSH1 0x40 MSTORE CALLVALUE DUP1 ISZERO PUSH2 0x10 JUMPI PUSH1 0x0 DUP1 REVERT JUMPDEST POP PUSH2 0x160A DUP1 PUSH2 0x20 PUSH1 0x0 CODECOPY PUSH1 0x0 RETURN INVALID PUSH1 0x80 PUSH1 0x40 MSTORE CALLVALUE DUP1 ISZERO PUSH2 0x10 JUMPI PUSH1 0x0 DUP1 REVERT JUMPDEST POP PUSH1 0x4 CALLDATASIZE LT PUSH2 0x41 JUMPI PUSH1 0x0 CALLDATALOAD PUSH1 0xE0 SHR DUP1 PUSH4 0x339D50A5 EQ PUSH2 0x46 JUMPI DUP1 PUSH4 0x4ACB9D4F EQ PUSH2 0x76 JUMPI DUP1 PUSH4 0xA3303A75 EQ PUSH2 0x94 JUMPI JUMPDEST PUSH1 0x0 DUP1 REVERT JUMPDEST PUSH2 0x60 PUSH1 0x4 DUP1 CALLDATASIZE SUB DUP2 ADD SWAP1 PUSH2 0x5B SWAP2 SWAP1 PUSH2 0x266 JUMP JUMPDEST PUSH2 0xB0 JUMP JUMPDEST PUSH1 0x40 MLOAD PUSH2 0x6D SWAP2 SWAP1 PUSH2 0x2D4 JUMP JUMPDEST PUSH1 0x40 MLOAD DUP1 SWAP2 SUB SWAP1 RETURN JUMPDEST PUSH2 0x7E PUSH2 0xEF JUMP JUMPDEST PUSH1 0x40 MLOAD PUSH2 0x8B SWAP2 SWAP1 PUSH2 0x3AD JUMP JUMPDEST PUSH1 0x40 MLOAD DUP1 SWAP2 SUB SWAP1 RETURN JUMPDEST PUSH2 0xAE PUSH1 0x4 DUP1 CALLDATASIZE SUB DUP2 ADD SWAP1 PUSH2 0xA9 SWAP2 SWAP1 PUSH2 0x266 JUMP JUMPDEST PUSH2 0x17D JUMP JUMPDEST STOP JUMPDEST PUSH1 0x0 DUP2 DUP2 SLOAD DUP2 LT PUSH2 0xC0 JUMPI PUSH1 0x0 DUP1 REVERT JUMPDEST SWAP1 PUSH1 0x0 MSTORE PUSH1 0x20 PUSH1 0x0 KECCAK256 ADD PUSH1 0x0 SWAP2 POP SLOAD SWAP1 PUSH2 0x100 EXP SWAP1 DIV PUSH20 0xFFFFFFFFFFFFFFFFFFFFFFFFFFFFFFFFFFFFFFFF AND DUP2 JUMP JUMPDEST PUSH1 0x60 PUSH1 0x0 DUP1 SLOAD DUP1 PUSH1 0x20 MUL PUSH1 0x20 ADD PUSH1 0x40 MLOAD SWAP1 DUP2 ADD PUSH1 0x40 MSTORE DUP1 SWAP3 SWAP2 SWAP1 DUP2 DUP2 MSTORE PUSH1 0x20 ADD DUP3 DUP1 SLOAD DUP1 ISZERO PUSH2 0x173 JUMPI PUSH1 0x20 MUL DUP3 ADD SWAP2 SWAP1 PUSH1 0x0 MSTORE PUSH1 0x20 PUSH1 0x0 KECCAK256 SWAP1 JUMPDEST DUP2 PUSH1 0x0 SWAP1 SLOAD SWAP1 PUSH2 0x100 EXP SWAP1 DIV PUSH20 0xFFFFFFFFFFFFFFFFFFFFFFFFFFFFFFFFFFFFFFFF AND PUSH20 0xFFFFFFFFFFFFFFFFFFFFFFFFFFFFFFFFFFFFFFFF AND DUP2 MSTORE PUSH1 0x20 ADD SWAP1 PUSH1 0x1 ADD SWAP1 DUP1 DUP4 GT PUSH2 0x129 JUMPI JUMPDEST POP POP POP POP POP SWAP1 POP SWAP1 JUMP JUMPDEST PUSH1 0x0 CALLER DUP3 PUSH1 0x40 MLOAD PUSH2 0x18D SWAP1 PUSH2 0x21E JUMP JUMPDEST PUSH2 0x198 SWAP3 SWAP2 SWAP1 PUSH2 0x3DE JUMP JUMPDEST PUSH1 0x40 MLOAD DUP1 SWAP2 SUB SWAP1 PUSH1 0x0 CREATE DUP1 ISZERO DUP1 ISZERO PUSH2 0x1B4 JUMPI RETURNDATASIZE PUSH1 0x0 DUP1 RETURNDATACOPY RETURNDATASIZE PUSH1 0x0 REVERT JUMPDEST POP SWAP1 POP PUSH1 0x0 DUP2 SWAP1 DUP1 PUSH1 0x1 DUP2 SLOAD ADD DUP1 DUP3 SSTORE DUP1 SWAP2 POP POP PUSH1 0x1 SWAP1 SUB SWAP1 PUSH1 0x0 MSTORE PUSH1 0x20 PUSH1 0x0 KECCAK256 ADD PUSH1 0x0 SWAP1 SWAP2 SWAP1 SWAP2 SWAP1 SWAP2 PUSH2 0x100 EXP DUP2 SLOAD DUP2 PUSH20 0xFFFFFFFFFFFFFFFFFFFFFFFFFFFFFFFFFFFFFFFF MUL NOT AND SWAP1 DUP4 PUSH20 0xFFFFFFFFFFFFFFFFFFFFFFFFFFFFFFFFFFFFFFFF AND MUL OR SWAP1 SSTORE POP POP POP JUMP JUMPDEST PUSH2 0x11CD DUP1 PUSH2 0x408 DUP4 CODECOPY ADD SWAP1 JUMP JUMPDEST PUSH1 0x0 DUP1 REVERT JUMPDEST PUSH1 0x0 DUP2 SWAP1 POP SWAP2 SWAP1 POP JUMP JUMPDEST PUSH2 0x243 DUP2 PUSH2 0x230 JUMP JUMPDEST DUP2 EQ PUSH2 0x24E JUMPI PUSH1 0x0 DUP1 REVERT JUMPDEST POP JUMP JUMPDEST PUSH1 0x0 DUP2 CALLDATALOAD SWAP1 POP PUSH2 0x260 DUP2 PUSH2 0x23A JUMP JUMPDEST SWAP3 SWAP2 POP POP JUMP JUMPDEST PUSH1 0x0 PUSH1 0x20 DUP3 DUP5 SUB SLT ISZERO PUSH2 0x27C JUMPI PUSH2 0x27B PUSH2 0x22B JUMP JUMPDEST JUMPDEST PUSH1 0x0 PUSH2 0x28A DUP5 DUP3 DUP6 ADD PUSH2 0x251 JUMP JUMPDEST SWAP2 POP POP SWAP3 SWAP2 POP POP JUMP JUMPDEST PUSH1 0x0 PUSH20 0xFFFFFFFFFFFFFFFFFFFFFFFFFFFFFFFFFFFFFFFF DUP3 AND SWAP1 POP SWAP2 SWAP1 POP JUMP JUMPDEST PUSH1 0x0 PUSH2 0x2BE DUP3 PUSH2 0x293 JUMP JUMPDEST SWAP1 POP SWAP2 SWAP1 POP JUMP JUMPDEST PUSH2 0x2CE DUP2 PUSH2 0x2B3 JUMP JUMPDEST DUP3 MSTORE POP POP JUMP JUMPDEST PUSH1 0x0 PUSH1 0x20 DUP3 ADD SWAP1 POP PUSH2 0x2E9 PUSH1 0x0 DUP4 ADD DUP5 PUSH2 0x2C5 JUMP JUMPDEST SWAP3 SWAP2 POP POP JUMP JUMPDEST PUSH1 0x0 DUP2 MLOAD SWAP1 POP SWAP2 SWAP1 POP JUMP JUMPDEST PUSH1 0x0 DUP3 DUP3 MSTORE PUSH1 0x20 DUP3 ADD SWAP1 POP SWAP3 SWAP2 POP POP JUMP JUMPDEST PUSH1 0x0 DUP2 SWAP1 POP PUSH1 0x20 DUP3 ADD SWAP1 POP SWAP2 SWAP1 POP JUMP JUMPDEST PUSH2 0x324 DUP2 PUSH2 0x2B3 JUMP JUMPDEST DUP3 MSTORE POP POP JUMP JUMPDEST PUSH1 0x0 PUSH2 0x336 DUP4 DUP4 PUSH2 0x31B JUMP JUMPDEST PUSH1 0x20 DUP4 ADD SWAP1 POP SWAP3 SWAP2 POP POP JUMP JUMPDEST PUSH1 0x0 PUSH1 0x20 DUP3 ADD SWAP1 POP SWAP2 SWAP1 POP JUMP JUMPDEST PUSH1 0x0 PUSH2 0x35A DUP3 PUSH2 0x2EF JUMP JUMPDEST PUSH2 0x364 DUP2 DUP6 PUSH2 0x2FA JUMP JUMPDEST SWAP4 POP PUSH2 0x36F DUP4 PUSH2 0x30B JUMP JUMPDEST DUP1 PUSH1 0x0 JUMPDEST DUP4 DUP2 LT ISZERO PUSH2 0x3A0 JUMPI DUP2 MLOAD PUSH2 0x387 DUP9 DUP3 PUSH2 0x32A JUMP JUMPDEST SWAP8 POP PUSH2 0x392 DUP4 PUSH2 0x342 JUMP JUMPDEST SWAP3 POP POP PUSH1 0x1 DUP2 ADD SWAP1 POP PUSH2 0x373 JUMP JUMPDEST POP DUP6 SWAP4 POP POP POP POP SWAP3 SWAP2 POP POP JUMP JUMPDEST PUSH1 0x0 PUSH1 0x20 DUP3 ADD SWAP1 POP DUP2 DUP2 SUB PUSH1 0x0 DUP4 ADD MSTORE PUSH2 0x3C7 DUP2 DUP5 PUSH2 0x34F JUMP JUMPDEST SWAP1 POP SWAP3 SWAP2 POP POP JUMP JUMPDEST PUSH2 0x3D8 DUP2 PUSH2 0x230 JUMP JUMPDEST DUP3 MSTORE POP POP JUMP JUMPDEST PUSH1 0x0 PUSH1 0x40 DUP3 ADD SWAP1 POP PUSH2 0x3F3 PUSH1 0x0 DUP4 ADD DUP6 PUSH2 0x2C5 JUMP JUMPDEST PUSH2 0x400 PUSH1 0x20 DUP4 ADD DUP5 PUSH2 0x3CF JUMP JUMPDEST SWAP4 SWAP3 POP POP POP JUMP INVALID PUSH1 0x80 PUSH1 0x40 MSTORE CALLVALUE DUP1 ISZERO PUSH3 0x11 JUMPI PUSH1 0x0 DUP1 REVERT JUMPDEST POP PUSH1 0x40 MLOAD PUSH3 0x11CD CODESIZE SUB DUP1 PUSH3 0x11CD DUP4 CODECOPY DUP2 DUP2 ADD PUSH1 0x40 MSTORE DUP2 ADD SWAP1 PUSH3 0x37 SWAP2 SWAP1 PUSH3 0x12B JUMP JUMPDEST DUP2 PUSH1 0x0 DUP1 PUSH2 0x100 EXP DUP2 SLOAD DUP2 PUSH20 0xFFFFFFFFFFFFFFFFFFFFFFFFFFFFFFFFFFFFFFFF MUL NOT AND SWAP1 DUP4 PUSH20 0xFFFFFFFFFFFFFFFFFFFFFFFFFFFFFFFFFFFFFFFF AND MUL OR SWAP1 SSTORE POP DUP1 PUSH1 0x1 DUP2 SWAP1 SSTORE POP POP POP PUSH3 0x172 JUMP JUMPDEST PUSH1 0x0 DUP1 REVERT JUMPDEST PUSH1 0x0 PUSH20 0xFFFFFFFFFFFFFFFFFFFFFFFFFFFFFFFFFFFFFFFF DUP3 AND SWAP1 POP SWAP2 SWAP1 POP JUMP JUMPDEST PUSH1 0x0 PUSH3 0xB8 DUP3 PUSH3 0x8B JUMP JUMPDEST SWAP1 POP SWAP2 SWAP1 POP JUMP JUMPDEST PUSH3 0xCA DUP2 PUSH3 0xAB JUMP JUMPDEST DUP2 EQ PUSH3 0xD6 JUMPI PUSH1 0x0 DUP1 REVERT JUMPDEST POP JUMP JUMPDEST PUSH1 0x0 DUP2 MLOAD SWAP1 POP PUSH3 0xEA DUP2 PUSH3 0xBF JUMP JUMPDEST SWAP3 SWAP2 POP POP JUMP JUMPDEST PUSH1 0x0 DUP2 SWAP1 POP SWAP2 SWAP1 POP JUMP JUMPDEST PUSH3 0x105 DUP2 PUSH3 0xF0 JUMP JUMPDEST DUP2 EQ PUSH3 0x111 JUMPI PUSH1 0x0 DUP1 REVERT JUMPDEST POP JUMP JUMPDEST PUSH1 0x0 DUP2 MLOAD SWAP1 POP PUSH3 0x125 DUP2 PUSH3 0xFA JUMP JUMPDEST SWAP3 SWAP2 POP POP JUMP JUMPDEST PUSH1 0x0 DUP1 PUSH1 0x40 DUP4 DUP6 SUB SLT ISZERO PUSH3 0x145 JUMPI PUSH3 0x144 PUSH3 0x86 JUMP JUMPDEST JUMPDEST PUSH1 0x0 PUSH3 0x155 DUP6 DUP3 DUP7 ADD PUSH3 0xD9 JUMP JUMPDEST SWAP3 POP POP PUSH1 0x20 PUSH3 0x168 DUP6 DUP3 DUP7 ADD PUSH3 0x114 JUMP JUMPDEST SWAP2 POP POP SWAP3 POP SWAP3 SWAP1 POP JUMP JUMPDEST PUSH2 0x104B DUP1 PUSH3 0x182 PUSH1 0x0 CODECOPY PUSH1 0x0 RETURN INVALID PUSH1 0x80 PUSH1 0x40 MSTORE PUSH1 0x4 CALLDATASIZE LT PUSH2 0x9C JUMPI PUSH1 0x0 CALLDATALOAD PUSH1 0xE0 SHR DUP1 PUSH4 0x81D12C58 GT PUSH2 0x64 JUMPI DUP1 PUSH4 0x81D12C58 EQ PUSH2 0x18C JUMPI DUP1 PUSH4 0x82FDE093 EQ PUSH2 0x1CD JUMPI DUP1 PUSH4 0x8A9CFD55 EQ PUSH2 0x1F8 JUMPI DUP1 PUSH4 0x937E09B1 EQ PUSH2 0x221 JUMPI DUP1 PUSH4 0xD7BB99BA EQ PUSH2 0x24C JUMPI DUP1 PUSH4 0xD7D1BBDB EQ PUSH2 0x256 JUMPI PUSH2 0x9C JUMP JUMPDEST DUP1 PUSH4 0x3441006 EQ PUSH2 0xA1 JUMPI DUP1 PUSH4 0xA144391 EQ PUSH2 0xCA JUMPI DUP1 PUSH4 0x3FAD1834 EQ PUSH2 0x107 JUMPI DUP1 PUSH4 0x4051DDAC EQ PUSH2 0x132 JUMPI DUP1 PUSH4 0x481C6A75 EQ PUSH2 0x161 JUMPI JUMPDEST PUSH1 0x0 DUP1 REVERT JUMPDEST CALLVALUE DUP1 ISZERO PUSH2 0xAD JUMPI PUSH1 0x0 DUP1 REVERT JUMPDEST POP PUSH2 0xC8 PUSH1 0x4 DUP1 CALLDATASIZE SUB DUP2 ADD SWAP1 PUSH2 0xC3 SWAP2 SWAP1 PUSH2 0x85B JUMP JUMPDEST PUSH2 0x27F JUMP JUMPDEST STOP JUMPDEST CALLVALUE DUP1 ISZERO PUSH2 0xD6 JUMPI PUSH1 0x0 DUP1 REVERT JUMPDEST POP PUSH2 0xF1 PUSH1 0x4 DUP1 CALLDATASIZE SUB DUP2 ADD SWAP1 PUSH2 0xEC SWAP2 SWAP1 PUSH2 0x8E6 JUMP JUMPDEST PUSH2 0x3B9 JUMP JUMPDEST PUSH1 0x40 MLOAD PUSH2 0xFE SWAP2 SWAP1 PUSH2 0x92E JUMP JUMPDEST PUSH1 0x40 MLOAD DUP1 SWAP2 SUB SWAP1 RETURN JUMPDEST CALLVALUE DUP1 ISZERO PUSH2 0x113 JUMPI PUSH1 0x0 DUP1 REVERT JUMPDEST POP PUSH2 0x11C PUSH2 0x3D9 JUMP JUMPDEST PUSH1 0x40 MLOAD PUSH2 0x129 SWAP2 SWAP1 PUSH2 0x958 JUMP JUMPDEST PUSH1 0x40 MLOAD DUP1 SWAP2 SUB SWAP1 RETURN JUMPDEST CALLVALUE DUP1 ISZERO PUSH2 0x13E JUMPI PUSH1 0x0 DUP1 REVERT JUMPDEST POP PUSH2 0x147 PUSH2 0x3E3 JUMP JUMPDEST PUSH1 0x40 MLOAD PUSH2 0x158 SWAP6 SWAP5 SWAP4 SWAP3 SWAP2 SWAP1 PUSH2 0x982 JUMP JUMPDEST PUSH1 0x40 MLOAD DUP1 SWAP2 SUB SWAP1 RETURN JUMPDEST CALLVALUE DUP1 ISZERO PUSH2 0x16D JUMPI PUSH1 0x0 DUP1 REVERT JUMPDEST POP PUSH2 0x176 PUSH2 0x427 JUMP JUMPDEST PUSH1 0x40 MLOAD PUSH2 0x183 SWAP2 SWAP1 PUSH2 0x9D5 JUMP JUMPDEST PUSH1 0x40 MLOAD DUP1 SWAP2 SUB SWAP1 RETURN JUMPDEST CALLVALUE DUP1 ISZERO PUSH2 0x198 JUMPI PUSH1 0x0 DUP1 REVERT JUMPDEST POP PUSH2 0x1B3 PUSH1 0x4 DUP1 CALLDATASIZE SUB DUP2 ADD SWAP1 PUSH2 0x1AE SWAP2 SWAP1 PUSH2 0x85B JUMP JUMPDEST PUSH2 0x44B JUMP JUMPDEST PUSH1 0x40 MLOAD PUSH2 0x1C4 SWAP6 SWAP5 SWAP4 SWAP3 SWAP2 SWAP1 PUSH2 0xA80 JUMP JUMPDEST PUSH1 0x40 MLOAD DUP1 SWAP2 SUB SWAP1 RETURN JUMPDEST CALLVALUE DUP1 ISZERO PUSH2 0x1D9 JUMPI PUSH1 0x0 DUP1 REVERT JUMPDEST POP PUSH2 0x1E2 PUSH2 0x536 JUMP JUMPDEST PUSH1 0x40 MLOAD PUSH2 0x1EF SWAP2 SWAP1 PUSH2 0x958 JUMP JUMPDEST PUSH1 0x40 MLOAD DUP1 SWAP2 SUB SWAP1 RETURN JUMPDEST CALLVALUE DUP1 ISZERO PUSH2 0x204 JUMPI PUSH1 0x0 DUP1 REVERT JUMPDEST POP PUSH2 0x21F PUSH1 0x4 DUP1 CALLDATASIZE SUB DUP2 ADD SWAP1 PUSH2 0x21A SWAP2 SWAP1 PUSH2 0xC0F JUMP JUMPDEST PUSH2 0x53C JUMP JUMPDEST STOP JUMPDEST CALLVALUE DUP1 ISZERO PUSH2 0x22D JUMPI PUSH1 0x0 DUP1 REVERT JUMPDEST POP PUSH2 0x236 PUSH2 0x64C JUMP JUMPDEST PUSH1 0x40 MLOAD PUSH2 0x243 SWAP2 SWAP1 PUSH2 0x958 JUMP JUMPDEST PUSH1 0x40 MLOAD DUP1 SWAP2 SUB SWAP1 RETURN JUMPDEST PUSH2 0x254 PUSH2 0x652 JUMP JUMPDEST STOP JUMPDEST CALLVALUE DUP1 ISZERO PUSH2 0x262 JUMPI PUSH1 0x0 DUP1 REVERT JUMPDEST POP PUSH2 0x27D PUSH1 0x4 DUP1 CALLDATASIZE SUB DUP2 ADD SWAP1 PUSH2 0x278 SWAP2 SWAP1 PUSH2 0x85B JUMP JUMPDEST PUSH2 0x6D3 JUMP JUMPDEST STOP JUMPDEST PUSH1 0x0 DUP1 SLOAD SWAP1 PUSH2 0x100 EXP SWAP1 DIV PUSH20 0xFFFFFFFFFFFFFFFFFFFFFFFFFFFFFFFFFFFFFFFF AND PUSH20 0xFFFFFFFFFFFFFFFFFFFFFFFFFFFFFFFFFFFFFFFF AND CALLER PUSH20 0xFFFFFFFFFFFFFFFFFFFFFFFFFFFFFFFFFFFFFFFF AND EQ PUSH2 0x2D7 JUMPI PUSH1 0x0 DUP1 REVERT JUMPDEST PUSH1 0x0 PUSH1 0x3 PUSH1 0x0 DUP4 DUP2 MSTORE PUSH1 0x20 ADD SWAP1 DUP2 MSTORE PUSH1 0x20 ADD PUSH1 0x0 KECCAK256 SWAP1 POP DUP1 PUSH1 0x2 ADD PUSH1 0x14 SWAP1 SLOAD SWAP1 PUSH2 0x100 EXP SWAP1 DIV PUSH1 0xFF AND ISZERO PUSH2 0x30A JUMPI PUSH1 0x0 DUP1 REVERT JUMPDEST PUSH1 0x4 SLOAD PUSH1 0x2 DUP3 PUSH1 0x3 ADD SLOAD PUSH2 0x31E SWAP2 SWAP1 PUSH2 0xCAD JUMP JUMPDEST LT ISZERO PUSH2 0x329 JUMPI PUSH1 0x0 DUP1 REVERT JUMPDEST DUP1 PUSH1 0x2 ADD PUSH1 0x0 SWAP1 SLOAD SWAP1 PUSH2 0x100 EXP SWAP1 DIV PUSH20 0xFFFFFFFFFFFFFFFFFFFFFFFFFFFFFFFFFFFFFFFF AND PUSH20 0xFFFFFFFFFFFFFFFFFFFFFFFFFFFFFFFFFFFFFFFF AND PUSH2 0x8FC DUP3 PUSH1 0x1 ADD SLOAD SWAP1 DUP2 ISZERO MUL SWAP1 PUSH1 0x40 MLOAD PUSH1 0x0 PUSH1 0x40 MLOAD DUP1 DUP4 SUB DUP2 DUP6 DUP9 DUP9 CALL SWAP4 POP POP POP POP ISZERO DUP1 ISZERO PUSH2 0x397 JUMPI RETURNDATASIZE PUSH1 0x0 DUP1 RETURNDATACOPY RETURNDATASIZE PUSH1 0x0 REVERT JUMPDEST POP PUSH1 0x1 DUP2 PUSH1 0x2 ADD PUSH1 0x14 PUSH2 0x100 EXP DUP2 SLOAD DUP2 PUSH1 0xFF MUL NOT AND SWAP1 DUP4 ISZERO ISZERO MUL OR SWAP1 SSTORE POP POP POP JUMP JUMPDEST PUSH1 0x2 PUSH1 0x20 MSTORE DUP1 PUSH1 0x0 MSTORE PUSH1 0x40 PUSH1 0x0 KECCAK256 PUSH1 0x0 SWAP2 POP SLOAD SWAP1 PUSH2 0x100 EXP SWAP1 DIV PUSH1 0xFF AND DUP2 JUMP JUMPDEST PUSH1 0x0 PUSH1 0x5 SLOAD SWAP1 POP SWAP1 JUMP JUMPDEST PUSH1 0x0 DUP1 PUSH1 0x0 DUP1 PUSH1 0x0 PUSH1 0x1 SLOAD SELFBALANCE PUSH1 0x5 SLOAD PUSH1 0x4 SLOAD PUSH1 0x0 DUP1 SLOAD SWAP1 PUSH2 0x100 EXP SWAP1 DIV PUSH20 0xFFFFFFFFFFFFFFFFFFFFFFFFFFFFFFFFFFFFFFFF AND SWAP5 POP SWAP5 POP SWAP5 POP SWAP5 POP SWAP5 POP SWAP1 SWAP2 SWAP3 SWAP4 SWAP5 JUMP JUMPDEST PUSH1 0x0 DUP1 SLOAD SWAP1 PUSH2 0x100 EXP SWAP1 DIV PUSH20 0xFFFFFFFFFFFFFFFFFFFFFFFFFFFFFFFFFFFFFFFF AND DUP2 JUMP JUMPDEST PUSH1 0x3 PUSH1 0x20 MSTORE DUP1 PUSH1 0x0 MSTORE PUSH1 0x40 PUSH1 0x0 KECCAK256 PUSH1 0x0 SWAP2 POP SWAP1 POP DUP1 PUSH1 0x0 ADD DUP1 SLOAD PUSH2 0x46E SWAP1 PUSH2 0xD1E JUMP JUMPDEST DUP1 PUSH1 0x1F ADD PUSH1 0x20 DUP1 SWAP2 DIV MUL PUSH1 0x20 ADD PUSH1 0x40 MLOAD SWAP1 DUP2 ADD PUSH1 0x40 MSTORE DUP1 SWAP3 SWAP2 SWAP1 DUP2 DUP2 MSTORE PUSH1 0x20 ADD DUP3 DUP1 SLOAD PUSH2 0x49A SWAP1 PUSH2 0xD1E JUMP JUMPDEST DUP1 ISZERO PUSH2 0x4E7 JUMPI DUP1 PUSH1 0x1F LT PUSH2 0x4BC JUMPI PUSH2 0x100 DUP1 DUP4 SLOAD DIV MUL DUP4 MSTORE SWAP2 PUSH1 0x20 ADD SWAP2 PUSH2 0x4E7 JUMP JUMPDEST DUP3 ADD SWAP2 SWAP1 PUSH1 0x0 MSTORE PUSH1 0x20 PUSH1 0x0 KECCAK256 SWAP1 JUMPDEST DUP2 SLOAD DUP2 MSTORE SWAP1 PUSH1 0x1 ADD SWAP1 PUSH1 0x20 ADD DUP1 DUP4 GT PUSH2 0x4CA JUMPI DUP3 SWAP1 SUB PUSH1 0x1F AND DUP3 ADD SWAP2 JUMPDEST POP POP POP POP POP SWAP1 DUP1 PUSH1 0x1 ADD SLOAD SWAP1 DUP1 PUSH1 0x2 ADD PUSH1 0x0 SWAP1 SLOAD SWAP1 PUSH2 0x100 EXP SWAP1 DIV PUSH20 0xFFFFFFFFFFFFFFFFFFFFFFFFFFFFFFFFFFFFFFFF AND SWAP1 DUP1 PUSH1 0x2 ADD PUSH1 0x14 SWAP1 SLOAD SWAP1 PUSH2 0x100 EXP SWAP1 DIV PUSH1 0xFF AND SWAP1 DUP1 PUSH1 0x3 ADD SLOAD SWAP1 POP DUP6 JUMP JUMPDEST PUSH1 0x4 SLOAD DUP2 JUMP JUMPDEST PUSH1 0x0 DUP1 SLOAD SWAP1 PUSH2 0x100 EXP SWAP1 DIV PUSH20 0xFFFFFFFFFFFFFFFFFFFFFFFFFFFFFFFFFFFFFFFF AND PUSH20 0xFFFFFFFFFFFFFFFFFFFFFFFFFFFFFFFFFFFFFFFF AND CALLER PUSH20 0xFFFFFFFFFFFFFFFFFFFFFFFFFFFFFFFFFFFFFFFF AND EQ PUSH2 0x594 JUMPI PUSH1 0x0 DUP1 REVERT JUMPDEST PUSH1 0x0 PUSH1 0x3 PUSH1 0x0 PUSH1 0x5 PUSH1 0x0 DUP2 SLOAD DUP1 SWAP3 SWAP2 SWAP1 PUSH2 0x5AD SWAP1 PUSH2 0xD4F JUMP JUMPDEST SWAP2 SWAP1 POP SSTORE DUP2 MSTORE PUSH1 0x20 ADD SWAP1 DUP2 MSTORE PUSH1 0x20 ADD PUSH1 0x0 KECCAK256 SWAP1 POP DUP4 DUP2 PUSH1 0x0 ADD SWAP1 DUP2 PUSH2 0x5D2 SWAP2 SWAP1 PUSH2 0xF43 JUMP JUMPDEST POP DUP3 DUP2 PUSH1 0x1 ADD DUP2 SWAP1 SSTORE POP DUP2 DUP2 PUSH1 0x2 ADD PUSH1 0x0 PUSH2 0x100 EXP DUP2 SLOAD DUP2 PUSH20 0xFFFFFFFFFFFFFFFFFFFFFFFFFFFFFFFFFFFFFFFF MUL NOT AND SWAP1 DUP4 PUSH20 0xFFFFFFFFFFFFFFFFFFFFFFFFFFFFFFFFFFFFFFFF AND MUL OR SWAP1 SSTORE POP PUSH1 0x0 DUP2 PUSH1 0x2 ADD PUSH1 0x14 PUSH2 0x100 EXP DUP2 SLOAD DUP2 PUSH1 0xFF MUL NOT AND SWAP1 DUP4 ISZERO ISZERO MUL OR SWAP1 SSTORE POP PUSH1 0x0 DUP2 PUSH1 0x3 ADD DUP2 SWAP1 SSTORE POP POP POP POP POP JUMP JUMPDEST PUSH1 0x1 SLOAD DUP2 JUMP JUMPDEST PUSH1 0x1 SLOAD CALLVALUE LT ISZERO PUSH2 0x661 JUMPI PUSH1 0x0 DUP1 REVERT JUMPDEST PUSH1 0x1 PUSH1 0x2 PUSH1 0x0 CALLER PUSH20 0xFFFFFFFFFFFFFFFFFFFFFFFFFFFFFFFFFFFFFFFF AND PUSH20 0xFFFFFFFFFFFFFFFFFFFFFFFFFFFFFFFFFFFFFFFF AND DUP2 MSTORE PUSH1 0x20 ADD SWAP1 DUP2 MSTORE PUSH1 0x20 ADD PUSH1 0x0 KECCAK256 PUSH1 0x0 PUSH2 0x100 EXP DUP2 SLOAD DUP2 PUSH1 0xFF MUL NOT AND SWAP1 DUP4 ISZERO ISZERO MUL OR SWAP1 SSTORE POP PUSH1 0x4 PUSH1 0x0 DUP2 SLOAD DUP1 SWAP3 SWAP2 SWAP1 PUSH2 0x6CC SWAP1 PUSH2 0xD4F JUMP JUMPDEST SWAP2 SWAP1 POP SSTORE POP JUMP JUMPDEST PUSH1 0x0 PUSH1 0x3 PUSH1 0x0 DUP4 DUP2 MSTORE PUSH1 0x20 ADD SWAP1 DUP2 MSTORE PUSH1 0x20 ADD PUSH1 0x0 KECCAK256 SWAP1 POP PUSH1 0x2 PUSH1 0x0 CALLER PUSH20 0xFFFFFFFFFFFFFFFFFFFFFFFFFFFFFFFFFFFFFFFF AND PUSH20 0xFFFFFFFFFFFFFFFFFFFFFFFFFFFFFFFFFFFFFFFF AND DUP2 MSTORE PUSH1 0x20 ADD SWAP1 DUP2 MSTORE PUSH1 0x20 ADD PUSH1 0x0 KECCAK256 PUSH1 0x0 SWAP1 SLOAD SWAP1 PUSH2 0x100 EXP SWAP1 DIV PUSH1 0xFF AND PUSH2 0x740 JUMPI PUSH1 0x0 DUP1 REVERT JUMPDEST DUP1 PUSH1 0x4 ADD PUSH1 0x0 CALLER PUSH20 0xFFFFFFFFFFFFFFFFFFFFFFFFFFFFFFFFFFFFFFFF AND PUSH20 0xFFFFFFFFFFFFFFFFFFFFFFFFFFFFFFFFFFFFFFFF AND DUP2 MSTORE PUSH1 0x20 ADD SWAP1 DUP2 MSTORE PUSH1 0x20 ADD PUSH1 0x0 KECCAK256 PUSH1 0x0 SWAP1 SLOAD SWAP1 PUSH2 0x100 EXP SWAP1 DIV PUSH1 0xFF AND ISZERO PUSH2 0x799 JUMPI PUSH1 0x0 DUP1 REVERT JUMPDEST PUSH1 0x1 DUP2 PUSH1 0x4 ADD PUSH1 0x0 CALLER PUSH20 0xFFFFFFFFFFFFFFFFFFFFFFFFFFFFFFFFFFFFFFFF AND PUSH20 0xFFFFFFFFFFFFFFFFFFFFFFFFFFFFFFFFFFFFFFFF AND DUP2 MSTORE PUSH1 0x20 ADD SWAP1 DUP2 MSTORE PUSH1 0x20 ADD PUSH1 0x0 KECCAK256 PUSH1 0x0 PUSH2 0x100 EXP DUP2 SLOAD DUP2 PUSH1 0xFF MUL NOT AND SWAP1 DUP4 ISZERO ISZERO MUL OR SWAP1 SSTORE POP DUP1 PUSH1 0x3 ADD PUSH1 0x0 DUP2 SLOAD DUP1 SWAP3 SWAP2 SWAP1 PUSH2 0x808 SWAP1 PUSH2 0xD4F JUMP JUMPDEST SWAP2 SWAP1 POP SSTORE POP POP POP JUMP JUMPDEST PUSH1 0x0 PUSH1 0x40 MLOAD SWAP1 POP SWAP1 JUMP JUMPDEST PUSH1 0x0 DUP1 REVERT JUMPDEST PUSH1 0x0 DUP1 REVERT JUMPDEST PUSH1 0x0 DUP2 SWAP1 POP SWAP2 SWAP1 POP JUMP JUMPDEST PUSH2 0x838 DUP2 PUSH2 0x825 JUMP JUMPDEST DUP2 EQ PUSH2 0x843 JUMPI PUSH1 0x0 DUP1 REVERT JUMPDEST POP JUMP JUMPDEST PUSH1 0x0 DUP2 CALLDATALOAD SWAP1 POP PUSH2 0x855 DUP2 PUSH2 0x82F JUMP JUMPDEST SWAP3 SWAP2 POP POP JUMP JUMPDEST PUSH1 0x0 PUSH1 0x20 DUP3 DUP5 SUB SLT ISZERO PUSH2 0x871 JUMPI PUSH2 0x870 PUSH2 0x81B JUMP JUMPDEST JUMPDEST PUSH1 0x0 PUSH2 0x87F DUP5 DUP3 DUP6 ADD PUSH2 0x846 JUMP JUMPDEST SWAP2 POP POP SWAP3 SWAP2 POP POP JUMP JUMPDEST PUSH1 0x0 PUSH20 0xFFFFFFFFFFFFFFFFFFFFFFFFFFFFFFFFFFFFFFFF DUP3 AND SWAP1 POP SWAP2 SWAP1 POP JUMP JUMPDEST PUSH1 0x0 PUSH2 0x8B3 DUP3 PUSH2 0x888 JUMP JUMPDEST SWAP1 POP SWAP2 SWAP1 POP JUMP JUMPDEST PUSH2 0x8C3 DUP2 PUSH2 0x8A8 JUMP JUMPDEST DUP2 EQ PUSH2 0x8CE JUMPI PUSH1 0x0 DUP1 REVERT JUMPDEST POP JUMP JUMPDEST PUSH1 0x0 DUP2 CALLDATALOAD SWAP1 POP PUSH2 0x8E0 DUP2 PUSH2 0x8BA JUMP JUMPDEST SWAP3 SWAP2 POP POP JUMP JUMPDEST PUSH1 0x0 PUSH1 0x20 DUP3 DUP5 SUB SLT ISZERO PUSH2 0x8FC JUMPI PUSH2 0x8FB PUSH2 0x81B JUMP JUMPDEST JUMPDEST PUSH1 0x0 PUSH2 0x90A DUP5 DUP3 DUP6 ADD PUSH2 0x8D1 JUMP JUMPDEST SWAP2 POP POP SWAP3 SWAP2 POP POP JUMP JUMPDEST PUSH1 0x0 DUP2 ISZERO ISZERO SWAP1 POP SWAP2 SWAP1 POP JUMP JUMPDEST PUSH2 0x928 DUP2 PUSH2 0x913 JUMP JUMPDEST DUP3 MSTORE POP POP JUMP JUMPDEST PUSH1 0x0 PUSH1 0x20 DUP3 ADD SWAP1 POP PUSH2 0x943 PUSH1 0x0 DUP4 ADD DUP5 PUSH2 0x91F JUMP JUMPDEST SWAP3 SWAP2 POP POP JUMP JUMPDEST PUSH2 0x952 DUP2 PUSH2 0x825 JUMP JUMPDEST DUP3 MSTORE POP POP JUMP JUMPDEST PUSH1 0x0 PUSH1 0x20 DUP3 ADD SWAP1 POP PUSH2 0x96D PUSH1 0x0 DUP4 ADD DUP5 PUSH2 0x949 JUMP JUMPDEST SWAP3 SWAP2 POP POP JUMP JUMPDEST PUSH2 0x97C DUP2 PUSH2 0x8A8 JUMP JUMPDEST DUP3 MSTORE POP POP JUMP JUMPDEST PUSH1 0x0 PUSH1 0xA0 DUP3 ADD SWAP1 POP PUSH2 0x997 PUSH1 0x0 DUP4 ADD DUP9 PUSH2 0x949 JUMP JUMPDEST PUSH2 0x9A4 PUSH1 0x20 DUP4 ADD DUP8 PUSH2 0x949 JUMP JUMPDEST PUSH2 0x9B1 PUSH1 0x40 DUP4 ADD DUP7 PUSH2 0x949 JUMP JUMPDEST PUSH2 0x9BE PUSH1 0x60 DUP4 ADD DUP6 PUSH2 0x949 JUMP JUMPDEST PUSH2 0x9CB PUSH1 0x80 DUP4 ADD DUP5 PUSH2 0x973 JUMP JUMPDEST SWAP7 SWAP6 POP POP POP POP POP POP JUMP JUMPDEST PUSH1 0x0 PUSH1 0x20 DUP3 ADD SWAP1 POP PUSH2 0x9EA PUSH1 0x0 DUP4 ADD DUP5 PUSH2 0x973 JUMP JUMPDEST SWAP3 SWAP2 POP POP JUMP JUMPDEST PUSH1 0x0 DUP2 MLOAD SWAP1 POP SWAP2 SWAP1 POP JUMP JUMPDEST PUSH1 0x0 DUP3 DUP3 MSTORE PUSH1 0x20 DUP3 ADD SWAP1 POP SWAP3 SWAP2 POP POP JUMP JUMPDEST PUSH1 0x0 JUMPDEST DUP4 DUP2 LT ISZERO PUSH2 0xA2A JUMPI DUP1 DUP3 ADD MLOAD DUP2 DUP5 ADD MSTORE PUSH1 0x20 DUP2 ADD SWAP1 POP PUSH2 0xA0F JUMP JUMPDEST PUSH1 0x0 DUP5 DUP5 ADD MSTORE POP POP POP POP JUMP JUMPDEST PUSH1 0x0 PUSH1 0x1F NOT PUSH1 0x1F DUP4 ADD AND SWAP1 POP SWAP2 SWAP1 POP JUMP JUMPDEST PUSH1 0x0 PUSH2 0xA52 DUP3 PUSH2 0x9F0 JUMP JUMPDEST PUSH2 0xA5C DUP2 DUP6 PUSH2 0x9FB JUMP JUMPDEST SWAP4 POP PUSH2 0xA6C DUP2 DUP6 PUSH1 0x20 DUP7 ADD PUSH2 0xA0C JUMP JUMPDEST PUSH2 0xA75 DUP2 PUSH2 0xA36 JUMP JUMPDEST DUP5 ADD SWAP2 POP POP SWAP3 SWAP2 POP POP JUMP JUMPDEST PUSH1 0x0 PUSH1 0xA0 DUP3 ADD SWAP1 POP DUP2 DUP2 SUB PUSH1 0x0 DUP4 ADD MSTORE PUSH2 0xA9A DUP2 DUP9 PUSH2 0xA47 JUMP JUMPDEST SWAP1 POP PUSH2 0xAA9 PUSH1 0x20 DUP4 ADD DUP8 PUSH2 0x949 JUMP JUMPDEST PUSH2 0xAB6 PUSH1 0x40 DUP4 ADD DUP7 PUSH2 0x973 JUMP JUMPDEST PUSH2 0xAC3 PUSH1 0x60 DUP4 ADD DUP6 PUSH2 0x91F JUMP JUMPDEST PUSH2 0xAD0 PUSH1 0x80 DUP4 ADD DUP5 PUSH2 0x949 JUMP JUMPDEST SWAP7 SWAP6 POP POP POP POP POP POP JUMP JUMPDEST PUSH1 0x0 DUP1 REVERT JUMPDEST PUSH1 0x0 DUP1 REVERT JUMPDEST PUSH32 0x4E487B7100000000000000000000000000000000000000000000000000000000 PUSH1 0x0 MSTORE PUSH1 0x41 PUSH1 0x4 MSTORE PUSH1 0x24 PUSH1 0x0 REVERT JUMPDEST PUSH2 0xB1C DUP3 PUSH2 0xA36 JUMP JUMPDEST DUP2 ADD DUP2 DUP2 LT PUSH8 0xFFFFFFFFFFFFFFFF DUP3 GT OR ISZERO PUSH2 0xB3B JUMPI PUSH2 0xB3A PUSH2 0xAE4 JUMP JUMPDEST JUMPDEST DUP1 PUSH1 0x40 MSTORE POP POP POP JUMP JUMPDEST PUSH1 0x0 PUSH2 0xB4E PUSH2 0x811 JUMP JUMPDEST SWAP1 POP PUSH2 0xB5A DUP3 DUP3 PUSH2 0xB13 JUMP JUMPDEST SWAP2 SWAP1 POP JUMP JUMPDEST PUSH1 0x0 PUSH8 0xFFFFFFFFFFFFFFFF DUP3 GT ISZERO PUSH2 0xB7A JUMPI PUSH2 0xB79 PUSH2 0xAE4 JUMP JUMPDEST JUMPDEST PUSH2 0xB83 DUP3 PUSH2 0xA36 JUMP JUMPDEST SWAP1 POP PUSH1 0x20 DUP2 ADD SWAP1 POP SWAP2 SWAP1 POP JUMP JUMPDEST DUP3 DUP2 DUP4 CALLDATACOPY PUSH1 0x0 DUP4 DUP4 ADD MSTORE POP POP POP JUMP JUMPDEST PUSH1 0x0 PUSH2 0xBB2 PUSH2 0xBAD DUP5 PUSH2 0xB5F JUMP JUMPDEST PUSH2 0xB44 JUMP JUMPDEST SWAP1 POP DUP3 DUP2 MSTORE PUSH1 0x20 DUP2 ADD DUP5 DUP5 DUP5 ADD GT ISZERO PUSH2 0xBCE JUMPI PUSH2 0xBCD PUSH2 0xADF JUMP JUMPDEST JUMPDEST PUSH2 0xBD9 DUP5 DUP3 DUP6 PUSH2 0xB90 JUMP JUMPDEST POP SWAP4 SWAP3 POP POP POP JUMP JUMPDEST PUSH1 0x0 DUP3 PUSH1 0x1F DUP4 ADD SLT PUSH2 0xBF6 JUMPI PUSH2 0xBF5 PUSH2 0xADA JUMP JUMPDEST JUMPDEST DUP2 CALLDATALOAD PUSH2 0xC06 DUP5 DUP3 PUSH1 0x20 DUP7 ADD PUSH2 0xB9F JUMP JUMPDEST SWAP2 POP POP SWAP3 SWAP2 POP POP JUMP JUMPDEST PUSH1 0x0 DUP1 PUSH1 0x0 PUSH1 0x60 DUP5 DUP7 SUB SLT ISZERO PUSH2 0xC28 JUMPI PUSH2 0xC27 PUSH2 0x81B JUMP JUMPDEST JUMPDEST PUSH1 0x0 DUP5 ADD CALLDATALOAD PUSH8 0xFFFFFFFFFFFFFFFF DUP2 GT ISZERO PUSH2 0xC46 JUMPI PUSH2 0xC45 PUSH2 0x820 JUMP JUMPDEST JUMPDEST PUSH2 0xC52 DUP7 DUP3 DUP8 ADD PUSH2 0xBE1 JUMP JUMPDEST SWAP4 POP POP PUSH1 0x20 PUSH2 0xC63 DUP7 DUP3 DUP8 ADD PUSH2 0x846 JUMP JUMPDEST SWAP3 POP POP PUSH1 0x40 PUSH2 0xC74 DUP7 DUP3 DUP8 ADD PUSH2 0x8D1 JUMP JUMPDEST SWAP2 POP POP SWAP3 POP SWAP3 POP SWAP3 JUMP JUMPDEST PUSH32 0x4E487B7100000000000000000000000000000000000000000000000000000000 PUSH1 0x0 MSTORE PUSH1 0x11 PUSH1 0x4 MSTORE PUSH1 0x24 PUSH1 0x0 REVERT JUMPDEST PUSH1 0x0 PUSH2 0xCB8 DUP3 PUSH2 0x825 JUMP JUMPDEST SWAP2 POP PUSH2 0xCC3 DUP4 PUSH2 0x825 JUMP JUMPDEST SWAP3 POP DUP3 DUP3 MUL PUSH2 0xCD1 DUP2 PUSH2 0x825 JUMP JUMPDEST SWAP2 POP DUP3 DUP3 DIV DUP5 EQ DUP4 ISZERO OR PUSH2 0xCE8 JUMPI PUSH2 0xCE7 PUSH2 0xC7E JUMP JUMPDEST JUMPDEST POP SWAP3 SWAP2 POP POP JUMP JUMPDEST PUSH32 0x4E487B7100000000000000000000000000000000000000000000000000000000 PUSH1 0x0 MSTORE PUSH1 0x22 PUSH1 0x4 MSTORE PUSH1 0x24 PUSH1 0x0 REVERT JUMPDEST PUSH1 0x0 PUSH1 0x2 DUP3 DIV SWAP1 POP PUSH1 0x1 DUP3 AND DUP1 PUSH2 0xD36 JUMPI PUSH1 0x7F DUP3 AND SWAP2 POP JUMPDEST PUSH1 0x20 DUP3 LT DUP2 SUB PUSH2 0xD49 JUMPI PUSH2 0xD48 PUSH2 0xCEF JUMP JUMPDEST JUMPDEST POP SWAP2 SWAP1 POP JUMP JUMPDEST PUSH1 0x0 PUSH2 0xD5A DUP3 PUSH2 0x825 JUMP JUMPDEST SWAP2 POP PUSH32 0xFFFFFFFFFFFFFFFFFFFFFFFFFFFFFFFFFFFFFFFFFFFFFFFFFFFFFFFFFFFFFFFF DUP3 SUB PUSH2 0xD8C JUMPI PUSH2 0xD8B PUSH2 0xC7E JUMP JUMPDEST JUMPDEST PUSH1 0x1 DUP3 ADD SWAP1 POP SWAP2 SWAP1 POP JUMP JUMPDEST PUSH1 0x0 DUP2 SWAP1 POP DUP2 PUSH1 0x0 MSTORE PUSH1 0x20 PUSH1 0x0 KECCAK256 SWAP1 POP SWAP2 SWAP1 POP JUMP JUMPDEST PUSH1 0x0 PUSH1 0x20 PUSH1 0x1F DUP4 ADD DIV SWAP1 POP SWAP2 SWAP1 POP JUMP JUMPDEST PUSH1 0x0 DUP3 DUP3 SHL SWAP1 POP SWAP3 SWAP2 POP POP JUMP JUMPDEST PUSH1 0x0 PUSH1 0x8 DUP4 MUL PUSH2 0xDF9 PUSH32 0xFFFFFFFFFFFFFFFFFFFFFFFFFFFFFFFFFFFFFFFFFFFFFFFFFFFFFFFFFFFFFFFF DUP3 PUSH2 0xDBC JUMP JUMPDEST PUSH2 0xE03 DUP7 DUP4 PUSH2 0xDBC JUMP JUMPDEST SWAP6 POP DUP1 NOT DUP5 AND SWAP4 POP DUP1 DUP7 AND DUP5 OR SWAP3 POP POP POP SWAP4 SWAP3 POP POP POP JUMP JUMPDEST PUSH1 0x0 DUP2 SWAP1 POP SWAP2 SWAP1 POP JUMP JUMPDEST PUSH1 0x0 PUSH2 0xE40 PUSH2 0xE3B PUSH2 0xE36 DUP5 PUSH2 0x825 JUMP JUMPDEST PUSH2 0xE1B JUMP JUMPDEST PUSH2 0x825 JUMP JUMPDEST SWAP1 POP SWAP2 SWAP1 POP JUMP JUMPDEST PUSH1 0x0 DUP2 SWAP1 POP SWAP2 SWAP1 POP JUMP JUMPDEST PUSH2 0xE5A DUP4 PUSH2 0xE25 JUMP JUMPDEST PUSH2 0xE6E PUSH2 0xE66 DUP3 PUSH2 0xE47 JUMP JUMPDEST DUP5 DUP5 SLOAD PUSH2 0xDC9 JUMP JUMPDEST DUP3 SSTORE POP POP POP POP JUMP JUMPDEST PUSH1 0x0 SWAP1 JUMP JUMPDEST PUSH2 0xE83 PUSH2 0xE76 JUMP JUMPDEST PUSH2 0xE8E DUP2 DUP5 DUP5 PUSH2 0xE51 JUMP JUMPDEST POP POP POP JUMP JUMPDEST JUMPDEST DUP2 DUP2 LT ISZERO PUSH2 0xEB2 JUMPI PUSH2 0xEA7 PUSH1 0x0 DUP3 PUSH2 0xE7B JUMP JUMPDEST PUSH1 0x1 DUP2 ADD SWAP1 POP PUSH2 0xE94 JUMP JUMPDEST POP POP JUMP JUMPDEST PUSH1 0x1F DUP3 GT ISZERO PUSH2 0xEF7 JUMPI PUSH2 0xEC8 DUP2 PUSH2 0xD97 JUMP JUMPDEST PUSH2 0xED1 DUP5 PUSH2 0xDAC JUMP JUMPDEST DUP2 ADD PUSH1 0x20 DUP6 LT ISZERO PUSH2 0xEE0 JUMPI DUP2 SWAP1 POP JUMPDEST PUSH2 0xEF4 PUSH2 0xEEC DUP6 PUSH2 0xDAC JUMP JUMPDEST DUP4 ADD DUP3 PUSH2 0xE93 JUMP JUMPDEST POP POP JUMPDEST POP POP POP JUMP JUMPDEST PUSH1 0x0 DUP3 DUP3 SHR SWAP1 POP SWAP3 SWAP2 POP POP JUMP JUMPDEST PUSH1 0x0 PUSH2 0xF1A PUSH1 0x0 NOT DUP5 PUSH1 0x8 MUL PUSH2 0xEFC JUMP JUMPDEST NOT DUP1 DUP4 AND SWAP2 POP POP SWAP3 SWAP2 POP POP JUMP JUMPDEST PUSH1 0x0 PUSH2 0xF33 DUP4 DUP4 PUSH2 0xF09 JUMP JUMPDEST SWAP2 POP DUP3 PUSH1 0x2 MUL DUP3 OR SWAP1 POP SWAP3 SWAP2 POP POP JUMP JUMPDEST PUSH2 0xF4C DUP3 PUSH2 0x9F0 JUMP JUMPDEST PUSH8 0xFFFFFFFFFFFFFFFF DUP2 GT ISZERO PUSH2 0xF65 JUMPI PUSH2 0xF64 PUSH2 0xAE4 JUMP JUMPDEST JUMPDEST PUSH2 0xF6F DUP3 SLOAD PUSH2 0xD1E JUMP JUMPDEST PUSH2 0xF7A DUP3 DUP3 DUP6 PUSH2 0xEB6 JUMP JUMPDEST PUSH1 0x0 PUSH1 0x20 SWAP1 POP PUSH1 0x1F DUP4 GT PUSH1 0x1 DUP2 EQ PUSH2 0xFAD JUMPI PUSH1 0x0 DUP5 ISZERO PUSH2 0xF9B JUMPI DUP3 DUP8 ADD MLOAD SWAP1 POP JUMPDEST PUSH2 0xFA5 DUP6 DUP3 PUSH2 0xF27 JUMP JUMPDEST DUP7 SSTORE POP PUSH2 0x100D JUMP JUMPDEST PUSH1 0x1F NOT DUP5 AND PUSH2 0xFBB DUP7 PUSH2 0xD97 JUMP JUMPDEST PUSH1 0x0 JUMPDEST DUP3 DUP2 LT ISZERO PUSH2 0xFE3 JUMPI DUP5 DUP10 ADD MLOAD DUP3 SSTORE PUSH1 0x1 DUP3 ADD SWAP2 POP PUSH1 0x20 DUP6 ADD SWAP5 POP PUSH1 0x20 DUP2 ADD SWAP1 POP PUSH2 0xFBE JUMP JUMPDEST DUP7 DUP4 LT ISZERO PUSH2 0x1000 JUMPI DUP5 DUP10 ADD MLOAD PUSH2 0xFFC PUSH1 0x1F DUP10 AND DUP3 PUSH2 0xF09 JUMP JUMPDEST DUP4 SSTORE POP JUMPDEST PUSH1 0x1 PUSH1 0x2 DUP9 MUL ADD DUP9 SSTORE POP POP POP JUMPDEST POP POP POP POP POP POP JUMP INVALID LOG2 PUSH5 0x6970667358 0x22 SLT KECCAK256 PUSH9 0x85F0F036D5DE330EE3 0xD2 0xB1 0x21 0x2C 0xDD 0x2B PUSH20 0x79CB2B36755BDDE3242683A404AB6A64736F6C63 NUMBER STOP ADDMOD SLT STOP CALLER LOG2 PUSH5 0x6970667358 0x22 SLT KECCAK256 0x4A 0xD4 PUSH11 0xA09E76166461379AC53CBA 0xCE DUP12 0xCD PUSH9 0x230CB0BC95A8CBE4B8 0xED ADDRESS 0x4C 0xC6 0xC4 PUSH5 0x736F6C6343 STOP ADDMOD SLT STOP CALLER "},"gasEstimates":{"creation":{"codeDepositCost":"1128400","executionCost":"1174","totalCost":"1129574"},"external":{"createCampaign(uint256)":"infinite","deployedCampaigns(uint256)":"4934","getDeployedCampaigns()":"infinite"}},"methodIdentifiers":{"createCampaign(uint256)":"a3303a75","deployedCampaigns(uint256)":"339d50a5","getDeployedCampaigns()":"4acb9d4f"}},"storageLayout":{"storage":[{"astId":4,"contract":"Campaign.sol:CampaignFactory","label":"deployedCampaigns","offset":0,"slot":"0","type":"t_array(t_address)dyn_storage"}],"types":{"t_address":{"encoding":"inplace","label":"address","numberOfBytes":"20"},"t_array(t_address)dyn_storage":{"base":"t_address","encoding":"dynamic_array","label":"address[]","numberOfBytes":"32"}}},"userdoc":{"kind":"user","methods":{},"version":1}}